:020000040800F2
:2000000000100020CD0100081D0200081D0200081D0200081D0200081D0200080000000017
:200020000000000000000000000000001D0200081D020008000000001D0200081D02000824
:200040001D0200081D0200081D0200081D0200081D0200081D0200081D0200081D02000868
:200060001D0200081D0200081D0200081D0200081D0200081D0200081D0200081D02000848
:200080001D0200081D0200081D0200081D0200081D0200081D0200081D0200081D02000828
:2000A0001D0200081D0200081D0200081D0200081D02000800000000000000001D02000856
:2000C0001D0200081D0200081D0200081D0200081D0200081D0200081D0200081D020008E8
:2000E0001D0200081D020008000000000000000000000000000000000000000000000000B2
:20010000000000001D020008000000001D02000800000000000000001D0200081D02000843
:200120001D0200081D0200081D0200081D0200081D020008000000000000000000000000FC
:200140001D0200081D0200081D020008000000001D0200081D0200081D0200081D0200088E
:200160001D0200081D0200081D020008000000001D0200081D0200080000000000000000BC
:200180001D0200081D0200081D02000810B5054C237833B9044B13B10448AFF300800123A8
:2001A000237010BD2802002000000000780C000808B5034B1BB103490348AFF3008008BDB4
:2001C000000000002C020020780C0008DFF834D000F040FA0C480D490D4A002302E0D4580E
:2001E000C4500433C4188C42F9D30A4A0A4C002301E013600432A242FBD300F0F3FC00F066
:2002000041FAFEE700100020000000200C000020980C00080C00002044020020FEE700001F
:20022000284B98420AD103F564431A6C42F400621A641A6C22F400621A640BE0B0F1804F84
:200240000AD1214B9A6B42F001029A639A6B22F001029A63002070471C4B984209D103F51F
:2002600000339A6B42F010029A639A6B22F01002EFE7174B984209D103F5FE339A6B42F090
:2002800020029A639A6B22F02002E2E7114B984209D103F550431A6C42F480321A641A6C30
:2002A00022F48032C8E70C4B984209D103F54C431A6C42F400321A641A6C22F40032BBE759
:2002C00001207047002C014000100240001000400014004000400140004401401A4A03680E
:2002E000904210B502D0B0F1804F09D14C6823F07003904243EA040309D0B0F1804F06D0EC
:20030000124A904203D002F58062904203D1CA6823F44073134303608B68C3620B88836218
:20032000094B984207D003F5A053984203D003F58063984201D10B690363436943F00103DC
:200340004361002010BD00BF002C01400040014042EA01032DE9F341054658070E4654D1C2
:200360002B4C236943F4434343F0FA038F082361236913F48033FBD161690029BFBF254981
:20038000A16001F18831A160C2F30A0171B9204C022161616169D00A41EAC0016161616959
:2003A00041F4803161612169C903FCD4184C96464FF00108BB420ED3636943F00043636103
:2003C00032467146284600F031FCB0FA80F0400902B0BDE8F08105EB830155F823004968A3
:2003E000EC46ACE80300C4F814800099116001995160216911F48031FBD1206940F00100C9
:200400002061023361610832D4E70020E0E700BF002002402301674500F018BC4FF08043D1
:2004200000225A625A6A9042FCD87047F0B5144C002222706270134615464AF2010CA9424A
:2004400006DC02B123802378A3706378E370F0BD465D082286EA030717F0010F4FEA5303EE
:2004600018BF83EA0C0302F1FF3218BF9BB212F0FF024FEA5606EDD101350122DFE700BFAD
:200480000C00002070B54FF0904504260446AE623420FFF7C3FF0821E3074CBFAE61AE622A
:2004A00034200139FFF7BAFF11F0FF014FEA5404F2D14FF0904304229A6170BD10B5124B28
:2004C0001B78012B03D0114B00229A8010BD104C236803F16043B3F5803FF4D8636803F1B5
:2004E0007843A3F58053B3F5802FECD872B64FF08040FFF795FE0749D4E900328C609D46FD
:2005000083F308881047E1E700F800080C0000200010000800ED00E070B5094C23180146A9
:20052000A01D9E79DD79FFF781FFA378B34204D1E078431B5842584170BD0020FCE700BF5E
:200540000C0000204FF090431869C0F3800070474FF090431A68042393FAA3F3B3FA83F3F1
:2005600003215B0001FA03F322EA0302042393FAA3F3B3FA83F35B0098404FF090431043F5
:200580001860704710B504460020FFF7E1FF4FF09043D868042393FAA3F3B3FA83F3032243
:2005A0005B0002FA03F320EA0303042090FAA0F0B0FA80F0400004FA00F018434FF09043EB
:2005C000D86010BD0120FFF7DDBF10B54FF090440423A3610120FFF7BBFF636823F00403AA
:2005E00063603420BDE81040FFF718BF08B5FFF7ECFFC120FFF746FFBDE80840FFF7E2BFE4
:2006000008B5FFF7E2FF3020FFF73CFFBDE80840FFF7D8BF08B5FFF7D8FFC220FFF732FFB8
:20062000BDE80840FFF7CEBF38B5FFF7CEFF084D002415F8010BFFF725FF01343420FFF76F
:20064000EDFE092CF5D1BDE83840FFF7BBBF00BF000000200A4B1A68002142F001021A60A1
:2006600099601A6822F0A85222F410221A604FF48052DA601A6822F480221A60996170477D
:20068000001002402DE98048B64A8BB0136823F0070343F0040300AF1360136803F0070383
:2006A000042BFAD1B04A136823F4C06343F40073136053695805FCD4AC4D2B6843F00103C8
:2006C0002B602B689907FCD52B6843F008032B602B6823F0F00343F060032B606B6823F48B
:2006E0007F436B60EA68A24B134043F4205343F00103EB60EB6843F08073EB602B6843F025
:2007000080732B602B689A01FCD5AB6843F00303AB60AB6803F00C030C2BFAD1AB68954CFA
:2007200023F0F003AB60AB6823F4E063AB60AB68142223F46053B818AB60002100F094FAA3
:20074000AB6D43F00103AB65AB6D03F00103FB60FB684F2307F11401BB824FF080404FF073
:20076000FF33FB61FFF7BAFD4FF0804302201A6822F080021A609A6822F4A03222F0070285
:200780009A605A6822F070025A609A6822F080029A601A6822F070021A601A6842F0010298
:2007A0001A60EB6C43F00103EB64EB6C03F001037B617B69EB6C43F00203EB64EB6C03F0AC
:2007C00002033B613B694FF0904304229A62FFF7D9FE4FF4FA70FFF721FE0146FFF7B2FE24
:2007E00020B9B4F808310133A4F808310A20FFF715FE0139F2D15F4CB4F80831B3F5E17F6A
:2008000005D9D5F89430DB0001D4FFF757FE0120FFF7B8FE4FF4FA70FFF700FE0146FFF7C3
:2008200091FE20B9B4F808310133A4F808310A20FFF7F4FD0139F2D1B4F80831DBB1084695
:20084000A4F80811FFF79EFE4FF4FA70FFF7E6FD0146FFF777FE20B9B4F808310133A4F88B
:2008600008310A20FFF7DAFD0139F2D1B4F808310BB1FFF723FE0020FFF784FE3E4B3F49EA
:200880003F480222DA703022FFF7C6FD237A0C2B0AD0013BDBB2FD2B06D80C23374A3848AB
:2008A00023723021FFF754FDDFF8D480002500214FF481724046DFF8C8A0C4F80C5184F80A
:2008C0001051002600F0D0F944F6206BFFF77AFE4FF0804184F811514D62FFF733FE0028C9
:2008E00050D04D62FFF72EFE002859D11A20FFF795FDFFF727FE0246002848D134207A6021
:20090000FFF78CFDFFF71EFE7A6800FA02F394F81101013203435FFA83F9082A84F8119139
:20092000ECD13420FFF77AFDFFF70CFE78B3012284F8102194F81221002A54D0B4F8140170
:20094000D4F80C210230904235D001328AF80090C4F80C210136B6F5817F0AF1010AB9D1F5
:2009600026E000BF0020024000700040001002408C80FFF90C0000200000002000F80008FE
:20098000120000204B6A5B45A7D96523A38094F810316BB9A388642B89D9FFF78FFD85E7AA
:2009A0004B6AB3F5826F9DD994F81031002B99D094F81231E3B1B4F81461A4F81661304605
:2009C000FFF7AAFD68B34FF480720021834800F04BF932464146814800F038F9FFF710FE1D
:2009E00084F81251D6E7486AFA280FD9C4F80C21A37DA0797D2B17D1A37B0D2BCAD1E37B9E
:200A0000422BC7D1FFF710FEA576C3E740F201139E4208BFA3888AF8009004BF1433A380B1
:200A200098E7FFF7F7FDB5E7A37E7D2B05D1A37C0D2B02D1E37C422BE4D094F82E307D2BD6
:200A400007D194F826300D2B03D194F82730422BD8D080B9227AE3791343627A134301D14D
:200A60006523A380FFF7B1FDC120FFF70BFDA3880133A38042E0012818D10220A4F81601BD
:200A8000FFF74AFD0028CCD0D4F81822544B9A4202D8FFF7ABFD7DE7B4F814114F48FFF79A
:200AA00057FC0028F5D0FFF7ABFD73E7FF2811D10420A4F81601FFF72FFD0028B1D02389A7
:200AC000A5805BBA9BB203F10063C4F81832FFF797FDECE6FE2814D10420A4F81601FFF7FE
:200AE0001BFD00289DD0237A012B14BF637A4FF48073A4F81431012384F81231FFF762FD81
:200B000048E7FD280CD10220A4F81601FFF704FD002886D0FFF759FDC120FFF7B3FCEDE7B4
:200B200002280CD1A4F81601FFF7F6FC00283FF478AFD4F818322A4A9342AAD9B3E70328EA
:200B400090D10220EA46A4F81601FFF7E5FC18B9FFF760FDD5461DE794F80790D4F80C31E9
:200B6000B9F1000F08BF4FF480790133C4F80C31FFF72BFD09F10A0222F00702ADEB020DA6
:200B800009F1030632460021684600F06DF84A46D4F818126846FFF73FFC49466846FFF71E
:200BA00045FCA3780DF809304B1CE2780DF80320023130230DF80130EB4600231BF803008C
:200BC0007B60FFF75FFC3420FFF728FC7B6801339E42F3DCFFF7F6FCBCE700BF2401002026
:200BE000FF0F000870B50D4D0D4C641BA4100026A64209D10B4D0C4C00F03EF8641BA410E3
:200C00000026A64205D170BD55F8043B98470136EEE755F8043B98470136F2E7900C00082D
:200C2000900C0008900C0008940C000810B501390244904201D1002005E0037811F8014F02
:200C4000A34201D0181B10BD0130F2E70A44914200F1FF3300D1704710B511F8014B03F8F3
:200C6000014F9142F9D110BD02440346934200D1704703F8011BF9E7F8B500BFF8BC08BCF3
:200C80009E467047F8B500BFF8BC08BC9E467047B10100088D0100083437316435060601A8
:040CA0003000000020
:2010000000000120D14000087166000875660008796600087D660008816600080000000013
:201020000000000000000000000000008566000889660008000000008D66000891660008CC
:20104000214100082141000821410008214100082141000821410008214100082141000840
:20106000214100082141000821410008956600082141000821410008B9660008DD660008E9
:20108000214100082141000821410008214100082141000821410008214100082141000800
:2010A00021410008A56700082141000821410008214100080000000000000000214100080A
:2010C0002141000821410008214100082141000821410008214100082141000821410008C0
:2010E000D9670008214100080000000000000000000000000000000000000000000000003E
:201100000000000021410008000000002141000800000000000000008D6700082141000895
:2011200021410008214100082141000821410008214100080000000000000000000000009D
:20114000C167000821410008214100080000000021410008214100082141000821410008E3
:2011600021410008214100082141000800000000214100082141000800000000000000005D
:201180002141000821410008214100084FF0FF0C1CEAD0521EBF1CEAD15392EA0C0F93EA84
:2011A0000C0F6FD01A4480EA010C400218BF5FEA41211ED04FF0006343EA501043EA511190
:2011C000A0FB01310CF00040B1F5000F3EBF490041EAD3715B0040EA010062F17F02FD2A1B
:2011E0001DD8B3F1004F40EBC25008BF20F00100704790F0000F0CF0004C08BF49024CEA1C
:20120000502040EA51207F3AC2BFD2F1FF0340EAC250704740F400004FF00003013A5DDCE7
:2012200012F1190FDCBF00F000407047C2F10002410021FA02F1C2F1200200FA02FC5FEAE7
:20124000310040F1000053EA4C0308BF20EADC70704792F0000F00F0004C02BF400010F4FA
:20126000000F013AF9D040EA0C0093F0000F01F0004C02BF490011F4000F013BF9D041EA08
:201280000C018FE70CEAD15392EA0C0F18BF93EA0C0F0AD030F0004C18BF31F0004CD8D178
:2012A00080EA010000F00040704790F0000F17BF90F0004F084691F0000F91F0004F14D016
:2012C00092EA0C0F01D142020FD193EA0C0F03D14B0218BF084608D180EA010000F000402F
:2012E00040F0FE4040F40000704740F0FE4040F44000704780F0004002E000BF81F00041F9
:2013000042001FBF5FEA410392EA030F7FEA226C7FEA236C6AD04FEA1262D2EB1363C1BF09
:20132000D218414048404140B8BF5B42192B88BF704710F0004F40F4000020F07F4018BFBA
:20134000404211F0004F41F4000121F07F4118BF494292EA030F3FD0A2F1010241FA03FCE5
:2013600010EB0C00C3F1200301FA03F100F0004302D5494260EB4000B0F5000F13D3B0F145
:20138000807F06D340084FEA310102F10102FE2A51D2B1F1004F40EBC25008BF20F001007B
:2013A00040EA03007047490040EB0000013A28BFB0F5000FEDD2B0FA80FCACF1080CB2EBCC
:2013C0000C0200FA0CF0AABF00EBC25052421843BCBFD0401843704792F0000F81F4000110
:2013E00006BF80F400000132013BB5E74FEA41037FEA226C18BF7FEA236C21D092EA030FE7
:2014000004D092F0000F08BF0846704790EA010F1CBF0020704712F07F4F04D1400028BF93
:2014200040F00040704712F100723CBF00F50000704700F0004343F0FE4040F400007047DA
:201440007FEA226216BF08467FEA23630146420206BF5FEA412390EA010F40F4800070479B
:201460004FF0000304E000BF10F0004348BF40425FEA000C08BF704743F0964301464FF056
:2014800000001CE050EA010208BF70474FF000030AE000BF50EA010208BF704711F00043AB
:2014A00002D5404261EB41015FEA010C02BF84460146002043F0B64308BFA3F18053A3F50B
:2014C0000003BCFA8CF2083AA3EBC25310DB01FA02FC634400FA02FCC2F12002BCF1004F9C
:2014E00020FA02F243EB020008BF20F00100704702F1200201FA02FCC2F1200250EA4C00B6
:2015000021FA02F243EB020008BF20EADC7070474FF0FF3C06E000BF4FF0010C02E000BFAC
:201520004FF0010C4DF804CD4FEA40024FEA41037FEA226C18BF7FEA236C11D001B052EABD
:20154000530C18BF90EA010F58BFB2EB030088BFC81738BF6FEAE17018BF40F0010070478E
:201560007FEA226C02D15FEA402C05D17FEA236CE4D15FEA412CE1D05DF8040B704700BF28
:20158000844608466146FFE70FB5FFF7C9FF002848BF10F1000F0FBD4DF808EDFFF7F4FFF6
:2015A0000CBF012000205DF808FB00BF4DF808EDFFF7EAFF34BF012000205DF808FB00BFA4
:2015C0004DF808EDFFF7E0FF94BF012000205DF808FB00BF4DF808EDFFF7D2FF94BF0120DC
:2015E00000205DF808FB00BF4DF808EDFFF7C8FF34BF012000205DF808FB00BF4FEA4002F7
:20160000B2F1FE4F0FD34FF09E03B3EB12620DD94FEA002343F0004310F0004F23FA02F0F0
:2016200018BF404270474FF00000704712F1610F01D1420205D110F0004008BF6FF000409F
:2016400070474FF00000704742000ED2B2F1FE4F0BD34FF09E03B3EB126209D44FEA0023C2
:2016600043F0004323FA02F070474FF00000704712F1610F01D1420202D14FF0FF307047B7
:201680004FF00000704700BF10B5054C237833B9044B13B10448AFF300800123237010BDF3
:2016A00074080020000000007C68000808B5034B1BB103490348AFF3008008BD000000004D
:2016C000780800207C680008A449A5480B68CA6F00882DE9F04FD21A92B2A24C55099042CD
:2016E00083B02280658062D29F48008890425ED99E480022028004F14006204601E051F82F
:20170000083F4A68D21A92B295422CBF0022012240F8042F8642F2D1A56BA368D4F818A004
:20172000D4F804E06169A26AD4F824B02069D4F820800193AE00656BE768D4F82CC083EA08
:201740000A0946EAC50689EA02098EEA010585EA0B054FEA8909E369009349EAC509256CC4
:20176000236B354380EA08065E4049EA0609E66B009B45EA4605EEB287EA03057C4B85EA56
:201780000C0549EA450593F80090EDB2B9F1000F10D0DFF8E09199F80090B9F1000F0FD166
:2017A000AE4211D0B4F850300133A4F8503003B0BDE8F08FDFF8BC9199F80030002B60D0C5
:2017C000C6F10F06F6B2EBE7684BB4F8465000261E80019B5B0243EA8E2343EA0C0343EACA
:2017E000072343EAC013013543EA81130099A4F8465043EA4A13256B43EA0113012D43EA47
:20180000C80308BF5C4E43EA8B0343EA420208BF35702F2A1BDD94F84830002B5BD1574DA4
:201820002A78002AC3D0564B1B78002BBFD1504B1B78002BBBD094F84B30934253D0042A49
:2018400084F84B205AD9012384F84930AFE7531E2E2B0FD9002AE2D194F84A304949012B6C
:2018600008BF84F84820454A00230B80137084F849309CE7434B414D0021D2B219802A7091
:20188000D1E703F0CBFAC0B194F844300133DBB2642B84F8443010D9012389F80030D4E9AC
:2018A00001E30193E3690093D4E90370D4E9051AD4E9088BD4E90A2C82E7D4E901E30193E4
:2018C000E3690093D4E90370D4E9051AD4E9088BD4E90A2C5FE72B482849028000230B7090
:2018E00084F8493063E7042A08D994F849300133DBB2052B84F849307FF659AF0023013AD4
:2019000084F84930142A0FD8DFE802F00B7E7A76720E6B64605C0E5446200E0E0E0E0E1949
:201920001400194B01221A70184A2978117000232B703CE7164A174B12781A70F4E7144B0D
:20194000144A1B78C3F101031370EDE7002240F6FF6384F84C20A4F84E30E5E76007002078
:201960004C070020E4030020D0030020DE060020AC060020ED060020D806002004070020E8
:201980009706002098060020B2060020050700208C0500203700002094F84A3001214FF455
:2019A00060628B4284F84C10A4F84E20BCD184F84830B9E700F0CAFA154B164A1B7801335A
:2019C0001370B1E7144B01221A70ADE7124B00221A70A9E70E49114B0120002208701A70BB
:2019E000A2E70B490D4B0020012208701A709BE7084B05221A7097E7064B04221A7093E7EE
:201A0000044B03221A708FE7024B02221A708BE78C050020B20600208D0500203700002053
:201A200030B52F4DB5F84E30002B3FD000221846A5F84E201A0A82EA13125340DB4303F0FC
:201A40000F0343EA0013274AAB6503F00F001913145C515C244844EAC134C3F30321C3F349
:201A60000313515CD35C214A92F800E044EA812444EA431405EB8E03802200EB8E00EC655A
:201A80005A66043013214FF0010C0CFA01F32340CB4083EAD2120139D2014B1C40F8042F3A
:201AA000F3D105EB8E0500232B6630BD104B1B785BB103460F2240FA02F1012908D0013A60
:201AC000082AF8D100226A65B4E74FF6FF70F0E7083A40FA02F343EA42206A6583B2A9E760
:201AE000E40300209468000844040020600800209706002030B5039C84460AE08C4513DD35
:201B00009C420FD0B1EB6E0F0DD0AC450EDC04462A4602EB010EE01894454FEA6E054FEACB
:201B20006000EBDB204630BD184630BD691C0346EFE700BF0346401A48BFC81A704700BF7C
:201B4000034A00235362536A8342FCD3704700BF001400400B4A4FF4FA5300215162936297
:201B6000536900EB800043F0010353614000536A8342FCD350239362536943F001035361B3
:201B8000704700BF00140040BFF34F8F0549064BCA6802F4E0621343CB60BFF34F8F00BF12
:201BA000FDE700BF00ED00E00400FA0503468A1A0069996810B51C6A1A6001FB0201A142B4
:201BC0001961C4BF21461C6164428C429869C4BF1C612146DC68101A04FB00F05C6858616E
:201BE00004FB02005C6A0844A042C3E90620C4BFDC61204664428442C4BFDC612046FFF770
:201C000033FC10BD30B5C44CC44DB0222968204683B003F08FFA627CA37CE17C207EA2F1BF
:201C20000102B2FA82F2520984F8B020627DA3F10103B3FA83F3A2F101025B09B2FA82F226
:201C400001294FEA521284F8B130E37D08BF84F8B2106A71217DA27D042B28BF0223A1F196
:201C60000101A2F10102B1FA81F1B2FA82F2EB71A0F1080349095209282B2971AA714BD8BF
:201C8000A0F11803182B40F21081A0F10C030B2B40F21C81A0F10803032B40F22881288997
:201CA0009F4BD862637EA3F13202642A3ED89D4AAB81A2FB03235B0803F10A02EB812A8262
:201CC000A37E217F627FE07E287503EB8303A1F10101A2F10102DB00B1FA81F1B2FA82F2B1
:201CE00014334909520902206B8284F8B31084F8B42002F00DF86378EBB9688A4FF4FA733A
:201D0000009340F6B8324FF47A734FF49671FFF7F1FE688603B030BD814A40F606536B81DD
:201D2000D362637EA3F13202642AC0D996225523AA81EB81C4E7A07F0B2888BF052001F07D
:201D4000E7FF94F8202094F82130E17F94F82300287702F277125200EA8294F8222003F248
:201D60006B335B0002F25E522B836A8394F8263094F82520A3F10103FA32B3FA83F3EA8324
:201D800094F828205B09A1F10101B1FA81F184F8B730531F142B4FEA511194F8293084F84A
:201DA000B51094F8241098BF85F820205A1E092AA1F1010194F82A2098BF85F82130B1FAA5
:201DC00081F14909531E84F8B610082B4FF0000184F8B8101AD8C2EB4213C2EB83035B0053
:201DE00085F822203D3BAA8C4D48617EDBB21A44AA84EA8C85F823301A44EA84426C1A43CC
:201E000042645A1803EB5103AA81EB8194F82B30A3F14602462A98BF85F8283094F82C308A
:201E20005A1E622A04D85B0001226B8584F8B92094F82D305A1E092A98BF85F82C3094F8AF
:201E40002E30092B06D8042B0CD8DFE803F00377730B5C00344A0023012184F8BA3084F84C
:201E6000BB30117094F82F30688A304AA3F10103B3FA83F35B09B0F5967F84F8BC303CBF63
:201E8000002385F82D30274B2C7DA2FB0012A3FB00135209DB082021B1FBF4F1B2FBF1F22A
:201EA000B3FBF1F3EA852B8628E740F283630093302240F606531821FFF71CFE0346207EA5
:201EC0002B81A0F10C030B2B3FF6E4AE40F606530093182241F60C230C21FFF70BFE034682
:201EE000207E2B81A0F10803032B3FF6D8AE41F289330093102242F212730721FFF7FAFD91
:201F000080B22881CCE60A49074A01230B700021117084F8BA30A5E7DC040020000000203D
:201F2000002C0140ABAAAAAA2C0400201F85EB512E040020012384F8BB3093E7024A012394
:201F400084F8BA3013708DE72C04002000B52148214B90F8B0C090F8B12090F8B21093F824
:201F600034E080F801E0ACF1010CA2F10102A1F10101BCFA8CFCB2FA82F2B1FA81F14FEA6C
:201F80005C1C5209490980F811C08274C1741A7993F805C0997993F807E080F817E0A2F13F
:201FA0000102ACF1010CA1F10101B2FA82F2BCFA8CFCB1FA81F1520949094FEA5C1C027590
:201FC000817580F815C01A685DF804EBB02103F017B800BFDC0400200000002000B5124A75
:201FE00092F8C410B2F89031D2F8C00002EB410C0131C9B26329BCF8C8E0ACF8C8301844C7
:2020000084BF002382F8C430084B98BF82F8C410A0EB0E00C2F8C000A3FB0030C0F34F1001
:20202000A2F892015DF804FBDC0400201F85EB5108B502F06FFF0E4B93F835203AB140B905
:202040000C4A92F89431013382F8943108BD0028F6D1084A93F8361092F895310133DBB280
:20206000994282F89531F1D2002382F8943108BD00000020DC04002038B5284C94F83730E7
:20208000012B3BD094F83830254D5A1E12F0FF0222D084F8382003F0010384F8353072B662
:2020A00095F897312BB362B602F050FFD5F89821E16B40F2A4639A4284BF012384F8393061
:2020C00094F8383005EB4303002285F8942185F89C21A3F89E1138BD0123062284F83820E9
:2020E00085F8963184F8353072B695F89731002BD9D194F8380004F09FF8D4E794F838207B
:20210000074D0132D2B2062A99BF84F8382002F0010384F8383085F89631BEE70000002075
:20212000DC0400201B4AD36823F0010310B5D360FFF7A2FF1849194CCB6BB4F8AC0194F878
:20214000BC2003EB430303449808C863C2B991F84020580912FB00F292B291F83910A4F8E7
:20216000B021C2EBD303A4F8B23181B1D4F8B43142F20F7293429CBF0133C4F8B43110BD22
:2021800094F8AE2100FB02F2C2F38F12E5E702F0D5FEEBE70044014000000020DC04002097
:2021A00070B5264ED6F898317D2B16D94FF080435B6A7C2B09D8B6F8B831B3F5167F04D25F
:2021C000D6F8B431B3F5FA7F19D396F8BA310133DBB2642B86F8BA3129D8194D95F84130A8
:2021E000002423B90CE095F84130A34208DD02F091FE95F83530834204F10104F3D170BD08
:2022000072B602F08FFE4FF08040B6F8B211426A0C4BA6F8AC210131002242625A62D9624A
:202220001A61DA6842F00102DA6062B670BD02F079FE0023C6F8B43170BD00BFDC04002012
:20224000000000200044014070B5CE4C94F8B13082B0002B00F0C88094F8BA30002B00F007
:202260001A81C94DB4F8BC21B2F5836F80F0D081A2F130039BB2B3F57A7F11D294F8B010E7
:2022800095F83760C1F10100864200F0898395F842105B009BB2C1F12F010B44A4F8BE3160
:2022A0002F2A00F2A680002394F8C321A4F8BE3184F8C23195F843309A4200F2A18094F8A5
:2022C000B260002E00F0BF80B4F8BE011D2800F285810023A4F8C43195F8203003EB8303E2
:2022E000B0EB830F4FEA830180F2848194F8C131002B40F0448194F8B2102E22502313FBC0
:202300000123B4F8C421934280F28D8094F8D031002B00F02F8194F8BB31002B00F05983ED
:2023200094F8B230002B00F0A082EB89B4F8C4014FF4FA620092283340F2FF728921FFF73E
:20234000D9FBA4F8D40194F8B73094F8B210002B40F00781B4F8C46184F8973150222E23BC
:2023600012FB0133B3425EDA2E2E40F2128294F8B4201E23D340D4F8B421934240F20982E6
:20238000B4F8D431AA8993423CBFA4F8D4211346EA8C9A423CBFA4F8D4211346B5F8762025
:2023A0009A4294F8B93038BFA4F8D4213BB1B5F97830B4F8D4219A42C8BFA4F8D431D4F891
:2023C000E05100212846FFF70FF9002800F0D7802F2E40F2D4802846FFF736F9B4F8D431A9
:2023E0001844A4F8D401CAE0B4F8BC31664DA4F8BE3194F8C32195F843309A427FF65FAFC0
:20240000AB79002B3FF45BAF03F058FE02F08AFD00226623A4F8C42184F8C33194F8C13154
:20242000002B40F0AC8094F8D631002B00F0B780013B042B00F2B080DFE813F0AC003802F3
:2024400035023202AC0094F8C631002B00F0DB8094F8C731002B40F05981D4F8CC614B4926
:202460003046FFF7C1F8002840F0EF813046FFF7EBF8A4F8C40146493046FFF797F800280D
:202480003FF434AF94F8C1313022A4F8C421002B3FF43CAF73E094F8B7203B4DB4F8BC01E5
:2024A000002A00F0EF802E7F760006F57A7188421DDD94F8B06095F83720B24200F01882C8
:2024C00094F89731002B40F01B81002384F8C03140F2FF7300934FF4FA622F23FFF70AFBFE
:2024E0002E7F0346B4F8BC01A4F8BE317600C6F57A72824222DD94F8B03095F83760C3F1CE
:2025000001018E4200F0228294F89731002B40F0F7802F230021009340F2FF7384F8C01138
:20252000FFF7E8FA2E7F03467600B4F8BC01A4F8BE31C6F57A739842C0F2E28006F57A76E2
:20254000B04200F3DD8094F897210023A4F8BE31002A00F0D580012284F8973184F8C02114
:20256000CEE02E22502313FB0123B4F8C4219342BFF659AF94F89761002E00F0058102B0BB
:2025800070BD00BFDC0400200000002000E0FF440000404201F000FD002384F8D6312B7952
:2025A000002B4BD194F8BB21A4F8D431002A40F0F58094F8B330C4F8B421012185F8391014
:2025C000002B40F0E98094F89731002B00F0348294F8B730002B40F0EA80D0E71E283FF4AA
:2025E0007BAE95F8202002EB8202920090421146C0F2BE8040F2FF720092A023FFF77AFA67
:20260000A4F8C40172E6B4F8BE31A4F8C4316DE694F8B03095F83710994200F0A88195F8C1
:202620004200A2F58361490089B2C0F12F00A2F1300301449BB2A4F8BE111CE694F8BB313C
:20264000002B40F0CB8094F8B320C4F8B431012685F8396084F89531002A00F0BD8094F872
:20266000B200002840F0BC8095F8213003F2DE335B00A4F8D83103F0C1F994F8B20084F8C9
:202680009761AFE02A7F520002F57A71884240F3E18094F8B03095F837209A4200F00981D2
:2026A00040F2FF7300934FF4FA622F23FFF722FA2B7F02465B00B4F8BC01A4F8BE21C3F5F7
:2026C0007A72824240F3E68094F8B03095F83760C3F101018E4200F01D812F230093002107
:2026E00040F2FF73FFF706FA2B7F02465B00B4F8BC01A4F8BE21C3F57A72904280F2CA80DD
:2027000094F8BA30002B3FF474AEABE5D5E91132B4F8BE0100922F2140F2FF72FFF7EAF969
:20272000B4F8BE21CA4B93FBF0F3287D2E2A4FEA500093FBF0F3A4F8C83140F2A480D4F8DA
:20274000CC61C4493046FEF74FFF002840F05B813046FEF779FFA4F8C401BF493046FEF79B
:2027600025FF00283FF4C2AD3023A4F8C431BDE5A02300931E212F23FFF7BCF90346A4F86E
:20278000C431B4F8BE01A7E5B4F8C4612E2E3FF6EEADB4F8D43101E603F088FD94F8B730CD
:2027A000002B3FF4E7AE94F89731002BECD0B4F8BC114FF47A70FFF7BDF92A8900F57A7304
:2027C0009BB2013A9342A4F8D831C0F23E8103F06DFD94F89761CFE603F070FC94F8B20053
:2027E00094F8976195F83830013BC3EB0312B5F8743003EB82031AB2B2F5B47F9BB2A6BF45
:20280000A3F5B4739BB2A4F8DA2103F1770212B2A8BFA4F8DA31B2F5B47FA8BFA3F1F1020E
:20282000A4F8DC2103F1EF0212B2B2F5B47FA6BF793BA4F8DE31A4F8DE210023012808BF0A
:2028400084F8C101A4F8D43196E640F2FF73A4F8C43110E6C2F57A729042FFF635AF002381
:20286000A4F8BE3184F8C2314AE74FF4FA62EB89B4F8C40100922F2140F2FF72FFF73AF9FB
:20288000A4F8D4015FE50023A4F8C461EE64C4F8CC31C3E503F57A738342FFF631AFDEE7A8
:2028A00001F00CFB78E601F0D7FB75E601F0A4FB72E6688EEA6B904280F0AA80B4F8B82180
:2028C000C72A00F2A580C3F101030026012285F83730C4F8B46185F8392002F023FB297FAC
:2028E000B4F8BC0184F8C261490001F57A71D7E694F8C061A4F8BE314FF0010C84F897C191
:20290000002E3FF4FDAEACEB020284F8973185F83720DAE5688EE96B884280F08380B4F806
:20292000B811C7297ED80122002685F83920C4F8B46185F8373002F0F5FA2A7FB4F8BC01C1
:2029400084F8C2615200C2F57A72C6E694F8C06100214FF0010CA4F8BE1184F897C1002EB0
:202960003FF4CEAE85F8373084F89711D1E5698EEA6B914240D2B4F8B821C72A3CD801220C
:20298000C3F10103002685F8392085F83730C4F8B46102F0C7FAB4F8BC2184F8C2613EE6CF
:2029A0006A8EEB6B9A4220D2B4F8B831C72B1CD80123002685F83930C4F8B46185F83710BB
:2029C00002F0B0FAB4F8BC2184F8C261A2F130035DE403F073FB95F8393083B3AB89A4F8CF
:2029E000D231012284F8BB219AE494F8C131002BDED1A4F8BC3156E494F8C121002ABED199
:202A0000A4F8BC214FE440F2FF73A4F8C431A4E694F8C121002A7FF456AF4FF47A70A4F872
:202A2000BC013DE694F8C11100297FF47CAF4FF47A70A4F8BC0150E603F040FBAEE694F887
:202A4000BB315BB102F07AFAC8E702F0D7FF91E50087930300E0FF4400004042FFF70CFB6C
:202A60004FF0804342F2107141F28832E9635A62012384F8BB31E5E710B50E4C94F8E43192
:202A8000012B0DD0022B03D0BDE81040FFF7DCBBB4F8E801FEF7C4FF002384F8E43110BDDD
:202AA000FEF712FE002384F8E431BDE81040FFF7CBBB00BFDC040020F8B54F4E4F4F96F8B7
:202AC0003710002977D1B7F8DA3101331AB2B7F8DC310133B2F5B47F1BB2B2BFA7F8DA21E2
:202AE000A7F8DA110A46B3F5B47FA8BF0023A7F8DC31B7F8DE3101331BB2B3F5B47F77DA00
:202B0000A7F8DE3106EB4202B6F84C13B2F97C3030893B4D3B4C0B4400FB03F385FB0312D1
:202B2000D81796F82C30C0EBE21003FB00F0C31784FB0020C3EBA00080B202F085FEB7F913
:202B4000DC31B6F84C0306EB4303B3F97C2096F82C300244308900FB02F285FB0201D017AA
:202B6000C0EBE11003FB00F084FB0023C017C0EBA30080B202F06EFEB7F9DE21B6F84C03C8
:202B800006EB4202B2F97C3096F82C200344308900FB03F385FB0315D817C0EBE51002FBBA
:202BA00000F084FB0034C017C0EBA40080B2BDE8F84002F055BEB7F8DA21B7F8DC31013A97
:202BC00012B2013B1BB2002AB8BF40F26712002BB8BF40F26713A7F8DC31B7F8DE31A7F885
:202BE000DA21013B1BB2002BB8BF40F2671387E70023A7F8DE3185E700000020DC040020B8
:202C0000D34D62106766666638B5254D254CEA6B4FF0804102EB42024B6AA4F8AC3112FAF9
:202C200083F200234B6253095B009BB2A4F8B031C3EBD2039BB29208D4F8B401EA63A4F8FA
:202C4000B23101E0042802D94A6A9A42FAD3164AD362FFF711FAD4F8B43194F8B40094F839
:202C6000B7100022013384F8942184F8952150EA0102C4F8B43105D1EA6B40F213539A4257
:202C800006D938BD132BFCD9EB6BB3F5FA6FF8D8002385F83930BDE8384002F04FB900BF37
:202CA00000000020DC04002000440140F8B5BD4CB4F8EE11B4F8EC01B4F8F02194F8D0312B
:202CC000B4F8D451A4F8B8510131A4F8EE1194F8F211013001320B43A4F8EC01A4F8F0213A
:202CE0001AD194F8F321BAB1B4F8BE51002D40F04A81B4F8F43101339BB244F62062934218
:202D0000A4F8F43108D9B4F8F6311E2B00F2838184F8F351A4F8F45194F8B53073B1A24ADD
:202D2000B4F8FA3192F84E2301339BB202EB8202B3EB820FA4F8FA3100F39F8094F8C13149
:202D4000002B38D1984D95F8393023B194F8BB31002B40F0FE80B4F8F031142B31D895F89D
:202D6000A833002B40F09080B4F8B81194F8D03123B194F8BB31002B40F0DA8094F89731B6
:202D80006889002B00F0A7802B89B4F8D8215D1C864B00FB02F283FB023CD317A3EBEC133B
:202DA0002B449BB2A4F80032814AA4F8D211D06253639363D363B4F802320133A4F8023247
:202DC000F8BD94F8B9300022A4F8F02123B194F8BB31002B40F0F88094F8B430002B40F010
:202DE000848094F8C631002BB9D094F8BB31002BB5D0B4F8C821D4F8E8116E486E4FFEF7AE
:202E0000D5FE6E49FEF7C2F9D4F8CC11FEF778FA39460646FEF7E8FB38B9002739463046B8
:202E2000FEF7C4FB002800F03081C4F8CC71D4F8B431632B93D895F8A8330022EA65002B6E
:202E400092D0B4F8D23101210A4685F8A9138C46B4F8B811C81A90422EDC581A904240F33A
:202E60009980A3EB0C0399B2EA79A4F8B811002385F8AA3385F8402078E70122002384F80E
:202E8000FC21A4F8FA3159E7D4F8B431952BB4F8D231D8D9952BD6D9D4F89821B2F5FA7F29
:202EA0008CBF042110210A4685F8A9138C46B4F8B811C81A9042D0DDEA6B634499B2B2F552
:202EC000FA7FA4F8B81161D9EB7985F84030012285F8AA234AE7354A00FB01F3A2FB0323BA
:202EE000C3F3CF13A4F800325EE794F8BB31002B3FF435AFB5F87C23E96B3148314FFEF7DF
:202F000055FE2E49FEF742F9D4F8E011FEF7F8F939460646FEF768FB38B9002739463046E4
:202F2000FEF74EFB002800F0AD80C4F8E07158E7B4F8C4312F2B7FF621AF68891B4A00FB31
:202F400001F3A2FB0323DB0901339BB2A4F800322AE701F0E7FFFFF76BF894F89C31002BC2
:202F60007FF4F9AE95F8353094F89421002B4CD095F84F339A427FF6EEAE012384F89C3154
:202F8000FFF742FEE7E6A4F8F431C5E6002385F8AA33EBE6EA7985F84020002385F8AA33B7
:202FA000E4E600BFDC04002000000020D34D6210002C01404C00002000E0FF4417B7D13803
:202FC00080030020000016436B8DB4F9FE113048642203FB02F2FEF7E9FD2E49FEF7D6F83C
:202FE000FEF70CFBB5F87830E9891B1A1BB21A468B42A5F878306B89BCBF0AB2A5F878203A
:203000009342B8BFA5F87830E6E695F850339A427FF6A1AEB1E701234FF47A7084F8D0313D
:20302000FEF78EFD2A462846FF2101F01BFF94F8F25125BB94F8B6300BB3B4F8F821164904
:203040005308A1FB0313DB09B2F5B97F84F8F2310DD3124F4AF6AA2600F068FF6420FEF7E0
:2030600079FD94F8F2313E600135AB42F4DC94F8BB30002B7FF450AE84F8B7304CE600F002
:2030800055FFF4E7C4F8E061ABE6C4F8CC61CEE65403002017B7D138B9D31FB100300040BC
:2030A0002DE9F04F85B002F053F802F02DFB02F0EDFBFEF7A7FD4FF00063C94DD3F8E03F1A
:2030C000C84CF82B04BFC84B2B60E378022B02D12379102B0CD00222C44BE2701022227100
:2030E00007CBC34EC4F805007160B260FEF72EFF94F8B0302A7929896981013B18BF012345
:2031000085F837300AB984F8B22094F8B730B3B1E889298AAA89002301264FF47A773230AC
:2031200032313232AF84E881298284F8B16085F82D6084F8B2306B712B71AB71AA810022AB
:2031400011467D2001F08EFE00F076FE0023A4F8F63102F0EBF8A74B4AF6AA221A6001F076
:20316000D1FD94F8C73113B1012384F8C63101F05BFEA04FDFF880A2DFF88092DFF88082AE
:203180004AF6AA26B4F8A211B4F8A031B4F8A421B4F8A6010B441344B4F8A811B4F8AA21FD
:2031A0003E6003440B44134404336A795B10C4F8E831002A40F0A781B4F8023242F2107212
:2031C000934209D994F8D011002940F0FB8249F64042934200F22483B4F8EC2144F6206350
:2031E0009A421BD9B4F9FEB15846FEF73DF95146FDF7CCFFD4F80412FEF782F8814AC4F8AC
:2032000004021378022B00F09182032B00F08182012B00F075820023A4F8EC31D4F8B4213C
:20322000B2F57A7F40F229810021B4F8BE3184F8C311C72B40F2058294F8B21011B19F2B81
:2032400040F2288194F80912002900F0C180B3F5C87FC0F02681D4F8E83194F8960188FBC1
:2032600003C1A1EBE371C4F8981110B10A2A00F2178294F81132002B00F08680EB6B3C2B18
:2032800040F28280604B1022002183F80F1383F8192383F8402394F8FC31002B40F08280B4
:2032A00094F814320133DBB2C82B84F8143200F2478194F8C1314FF0000B84F8BAB1002B32
:2032C00040F0A88094F8BB31504AD4F8E811504892FBF1F213FB02F39BB2A0FB032095F81C
:2032E0002D20A4F81232C008A4F82202002A40F0B98194F8080295F828104FF4FA638842C0
:20330000A5F8763000F2BF81D4F8B431632B00F20481EB6BB3F5FA7F40F2FF800C2385F8AE
:203320004130172300934FF4FA620D23B4F8B8016421FEF7DFFB4FF080424AF6C873526A8F
:2033400084F8AE019A427FF61DAF94F8BBB1BBF1010F7FF417AF94F8C331013384F8C33114
:2033600001F0E0FDB4F8C43185F839B02F2B05D8002384F8BB3141F28833EB630023C4F89B
:20338000B431FFF741FCFDE61F4B0022102183F80F1383F8192383F8402394F8FC31002B5F
:2033A0003FF47EAFD4F80402FEF74EF9B4F81212B4F8FE21009183B2B4F8F81194F80802F3
:2033C00003F024F903F0EEF8002384F8FC3167E7952B94BF64230A2385F843303BE700BF52
:2033E00000000020DC04002000F80008EC680008E104002000300040610B363B1F85EB511F
:20340000565555553004002000E100E0C0270900CDCCCCCCB4F8C431302B4AD994F8D02185
:20342000002A46D0313B572B00F2908194F82432002B40F00F82FFF73FFB95F814E0B4F830
:20344000C4017822302141F6583340F22A3CB3FBFEF3BCFBFEFCCDF800C0FEF74BFBA5F8B5
:20346000B00380B2FEF76CFBB5F8B0234FF41673B3FBF2F3A4F8123284E6B4F8BE31A3B9EB
:20348000642A84F8C33100F2DC8094F8B21000293FF4D8AE002184F8C31194F8091200296F
:2034A00096D0002384F8C331D5E6642A7FF6C4AEBFE694F8B3304FF0010B84F824B2002B07
:2034C00000F0C9802B8995F82110A3F1130202EB4102698992B2A4F8B82101FB02F2B2FB20
:2034E000F3F25B449B1AA4F8003202F087FAC24BB4F8002284F897B15A639A63DA63002399
:20350000A4F812323EE62B890093E86B5B08C8226021FEF7EFFA68814EE60C230093D4F8B6
:20352000980103234FF4FA726421FEF7E3FAEB6B85F84100312B9CBF022385F84130F0E612
:2035400001F060FAAD4AAE49936823F0004323F03F0343F004039360B1F8CA20B1F8A8304B
:203560009A4200F0EF80D11AB4F8162240F6E44000FB02F2A348A0FB0202C3EB9212642395
:2035800003FB02F292FBF1F21E3213B2D2B2B4F81A12A4F8183240F6E44B9B4B84F8082281
:2035A0000BFB01F2A3FB0213D21A03EB5203B5F8AC23DB0A02FB03F3B4F8F821A9FB03135D
:2035C000C2EBC20202EB5313DB10A4F8F831FEF705FD8E4AC4F81C020BFB00F3A2FB032312
:2035E0005B098B4AA3F52B53383B82FB03121A44DB17C3EB22131BB2002BB8BF0023A4F816
:20360000FE3194F8B6301BB394F8F231E98BB4F8F82101FB03F39A4217DAB4F8202294F81A
:20362000C1317C48013244F6206192B200FB03118A42A4F8202200F32081002284F8142281
:2036400039E6002184F8C311F6E50023A4F8203294F8C131F1E7684A53639363D36302F012
:203660002DFD4CE7B5F8AE330093E98DAB8C2A8EFEF740FA95F82810A5F8760094F80802CA
:2036800088427FF641AEB5F8AE33012200925B0801F10A020A39FEF72DFAA5F8760033E6CD
:2036A000D4F80C02FEF746FAD4F89831B0EB530F1BD9B3F5FA6F18D294F81022013284F80D
:2036C000102294F8B1200021C4F8B4119AB9B4F8C4212F2A0FD9002284F8BB21AA8952088D
:2036E000A4F8D221012285F83920002284F89621C4F80C32BDE5EA6BB2F57A7FEED9EAE7C4
:2037000094F80832444943F400730B800223137081E5B4F8F831A9FB0313C3F3C7033E497D
:2037200043F480630B800123137074E55FFA8BF3A9FB03131B09384943F4C0630B800323A3
:20374000137068E5FF2247F6FF7320E7012384F82432FFF7B1F9B4F8C431C82B04D9502348
:20376000A4F8DAB1A5F8B033B5F8B003FEF7E8F9B4F9DA31002B7FF405AD4FF08041012241
:2037800084F8C13184F8973142F22833EB63C4F89831C4F80C3285F839204B6294F8B43028
:2037A00084F8BB2195F8B22385F838201422C4F8B42113B12B8AA4F8D231FEF75DFC02F05B
:2037C00055F8DFE402F07AFC0B4B00255D639D63DD6384F8D051A4F8C45184F8F351A4F84C
:2037E000F65102F04BF80D484FF48072294603F03DF8FEF7C9F900BF002C014000000450F5
:203800000075FF1FF1197605010110007D0CCEC7898888887CFCFFFF3204002060070020EC
:20382000039102F04BFC1D4B039984F8D01159639963D963A4F8C41184F8F311A4F8F611D2
:20384000039102F01BF8039915484FF4807203F00DF8CEE7134AD36823F00103D36001F021
:2038600061FB0E4BC3F834B0C3F838B0C3F83CB002F0DAFD84F824B2DDE54FF0000BA4F8E7
:20388000C4B102F01BFC01F04DFB94F8C13184F8BBB1A4F8F6B184F8D0B1CEE6002C0140AA
:2038A0006007002000440140F0B5604CD4E90002101A6FF4487240F2765382189A4283B001
:2038C0002AD85B4E5B4D002333802B78002B3CD06B780146ABB9AB78002B00F08E80A888DB
:2038E000554F01333988AB70FEF724F9322866D900223B882A706A78AB804AB1D4E90031F4
:20390000C91A40F2E14399424DD9AB794B2B77D80023A868338004E04649484B8868002286
:203920001A804749474A0B881268A0EB030C944503DD13440B8003B0F0BD1C1AA242BABF97
:203940009B1A0B80088003B0F0BD3F4A147874B13E4A128890421AD83D494FF47A740988D7
:203960000094FEF7C7F8A86000233380D9E7324B1A88374B198840F2FF7300932F23FEF7A1
:20398000B9F83028CEBFA860AC602046ECE72A4B511C1A884FF4FA63009340F2E933FEF74A
:2039A000A9F8A860E0E72A48AB790288C2EBC20201331144DBB2C908AB710180A6E73B8832
:2039C0006268C3EBC3012368D31AAA780B44C3F3CF03322A3B808ED9193B9BB23B80A3F2CB
:2039E000D6631C4A03EBD3735B1082F8213001236B7000F0D1FA3B887DE780B2A8806FE72D
:203A0000134A1449138819339BB21380A3F2EE2303EBD3735B10002481F820302C70FEF762
:203A200095FAAC7100F0E8FA72E700BF60070020DE0600203407002018000020D2060020DA
:203A400098060020C80300208D0500201A00002016000020DC040020194A9388591E02297B
:203A600030B413D8174BD9683B290DD80021164C164D1748197401232970237015490E24D9
:203A80000470202090710B7030BC7047043B042BFAD80C49CB68632BF6D80C480C4C0A4D2C
:203AA000012303704FF0070C0A4884F800C04FF0200C2B700B7482F806C0037030BC7047B4
:203AC000C80300203407002096050020D203002060080020CF060020F8B5284B284F19685B
:203AE000002544F6206E1A46A7F804E003F17804AC462E4652F8043F8B42A3EB01001946D8
:203B000006D070453CBF1FFA80FE012684440125A242EFD10EB1A7F804E00DB14FEA5C1525
:203B2000184C194A2378D560012B23D0174D2B78012B15D02278134311D1FFF78DFFBB8820
:203B4000C93B44F656529BB2934208D801231049104A2B704F2008700221B9711370F8BD9F
:203B6000BA88C93A44F6565192B28A42F7D80849084AEFE7FFF770FFD8E700BF600700205D
:203B8000C8030020960500203407002097050020D2030020CF06002070B5504C237813B15E
:203BA0004F4B1B7833B94F4B1B78002B4FD0012B0AD070BD4C4B1B78002B35D001F0A2F85D
:203BC0004A4B02221A7070BD454B1B78002B31D1474D2B78012B6FD0464B1B78012B62D001
:203BE0002378002BE5D12B78002B3AD04249434B4A7C072A36D81888052833D9404C4D6938
:203C0000E06F24680132D2B22844001B082A4A74486127D1C0F3CF023A4CC0F3CF10151831
:203C2000101A258108831DE001F0B0F82F4B01221A7070BD2C4B1B787BB1334B1888FDF7F7
:203C4000EFFEFDF741FDBDE8704001F05BB8FFF743FFBDE8704001F055B8BDE8704001F01B
:203C600095B8264B294C208830B9234A127842BB1A8801321A8070BD40F2DC520026904298
:203C80001E8096D91C4D698BFDF754FF32281ED82B7F0133DBB2322B2B7701D96E7896B1B2
:203CA00023886B8370BD01F0B9F8164B88B103229A7101F027F893E7FDF706FD01F022F846
:203CC0008AE7188070BD00F0C7F901232B702E77E6E702229A71FFF7E7FDEAE7AC06002021
:203CE000ED060020CF0600205C070020C0060020960500209705002034070020D206002089
:203D000060070020C8030020C40600209A0600200B28034B28BF0B2040001870704700BFB6
:203D2000510700202DE9F84F384C394FDFF8E490032002F081FA04F17C0800231DE094F8A2
:203D40003550DFF8D4C0DFF8D4B0C3EBC3104FF0F70A4FF47A6201EB400080B21AFB052A96
:203D60004DBBCCF83450CCF83850CCF83C50FDF7F1FE2B46023444450ED04AF6AA22C9F899
:203D8000002094F834100026FF293E80D7D1023401334445DBB2F0D102F090F920481E4AF3
:203DA00000881C4900239362D0624AF6AA223B800A60BDE8F88F0A22FE20CCF8282010FB0E
:203DC0000311184D184BB3FBFAFAB5FBFAF5CCF82C509BF80020154B1548B0FBFAF005FB81
:203DE00002F2A3FB0232134B01FB00F0D20AA3FB0030CCF83420C0F34F10CCF83820CCF8FF
:203E00003C20FDF7A7FE3346B4E700BFDC040020DE06002000300040002C01405107002081
:203E20000800002000127A00809698005744419DA08601001F85EB5110B572B61A4B1B68CB
:203E400093F83030FF2B07D0FFF76CFF174A184B1288DA6262B610BD154C164B40F6065246
:203E6000E2621B7863630320A363E36302F0E4F93723A362C820FDF76DFE052002F0DCF9D5
:203E80002823A362C820FDF765FE062002F0D4F91923A362C820FDF75DFE02F00FF9064AEC
:203EA0000023A3621380D1E70000002008000020002C014051070020DE06002070B5164CD7
:203EC00040F60653E36272B6144D154B3C224AF6AA262E60A2621B7863630120A363E3635F
:203EE00002F0AAF94B20FDF735FE5023A3624B20FDF730FE5A23A3624B202E60FDF72AFEFF
:203F000002F0DCF8074A084912880023A3620B80E26262B670BD00BF002C014000300040C7
:203F20005107002008000020DE06002010B572B6144C154A154B4AF6AA2140F60650E062F8
:203F400011605022A2621B7863630320A363E36302F072F96420FDF7FDFD4623A3626420F1
:203F6000FDF7F8FD2823A3626420FDF7F3FD02F0A5F8074A074912880023A3620B80E262DF
:203F800062B610BD002C0140003000405107002008000020DE06002010B5124C124B40F605
:203FA00006513222E162A2621B7863630220A363E36302F041F99620FDF7CCFD0B4A4AF614
:203FC000AA211E2311609620A362FDF7C3FD02F075F8074A074912880023A3620B80E26264
:203FE00010BD00BF002C0140510700200030004008000020DE06002010B5124C124B40F6FE
:2040000006512822E162A2621B7863630220A363E36302F011F99620FDF79CFD0B4A4AF61D
:20402000AA21502311609620A362FDF793FD02F045F8074A074912880023A3620B80E26231
:2040400010BD00BF002C0140510700200030004008000020DE0600202DE9F041164D40F673
:204060000653EB6272B6154BDFF854801B78154F6B637724AB634AF6AA26EB63A7FB0430C5
:20408000C0F30710C8F8006002F0D6F863100A33AB620A20023CFDF75DFD631CEED102F0D3
:2040A0000DF8094A094912880023AB620B80EA6262B6BDE8F08100BF002C014051070020E3
:2040C00000300040CDCCCCCC08000020DE060020DFF834D002F08EFB0C480D490D4A002399
:2040E00002E0D458C4500433C4188C42F9D30A4A0A4C002301E013600432A242FBD302F0F6
:2041000091FBFEF7CDFFFEE70000012000000020E403002004690008E403002090080020F1
:20412000FEE700000368002B13DB30B4D1E900348A68CD68234313430A69046849692B4362
:204140001343054A0B4322401343036030BC002070470120704700BF037E20F92DE9F04F08
:204160000D6895FAA5F2B2FA82F235FA02F300F0A3804FF0010C4FF0030E0F26EF431FE04B
:20418000D0F8008093FAA3F9B9F1000F07D0B9FA89F94FEA49090EFA09F928EA090893FAA4
:2041A000A3F3002B00F08B80B3FA83F35B0004FA03F343EA08030360013235FA02F37BD094
:2041C0000CFA02F32B40F7D04C6804F1FF38B8F1010F44D9D1F81090D0F80CA093FAA3F8F7
:2041E000B8F1000F07D0B8FA88F84FEA48080EFA08F82AEA080A93FAA3F8B8F1000F60D037
:20420000B8FA88F84FEA480809FA08F848EA0A0A022CC0F80CA0B3D1FF2BD1F8149053D8C2
:20422000D0F820A093FAA3F8B8F1000F07D0B8FA88F84FEA880806FA08F82AEA080A93FA91
:20424000A3F8B8F1000F63D0B8FA88F84FEA880809FA08F848EA0A0AC0F820A090E7D1F8DC
:204260000890D0F808A093FAA3F8B8F1000F07D0B8FA88F84FEA48080EFA08F82AEA080A96
:2042800093FAA3F8B8F1000F3FD0B8FA88F84FEA480809FA08F848EA0A0AC0F808A0D0F803
:2042A0000480D1F80C9007EA080809FB05F948EA0908C0F804808DE70020BDE8F08F402378
:2042C00075E74FF040089FE7D0F824A04FEA132898FAA8FBBBF1000F07D0BBFA8BFB4FEA3A
:2042E0008B0B06FA0BFB2AEA0B0A98FAA8F8B8F1000F10D0B8FA88F84FEA880809FA08F831
:2043000048EA0A0AC0F824A03AE74FF04008C0E74FF080089CE74FF08008EFE73B4B9B681C
:2043200003F00C030C2B08D8DFE803F00707070736070707380707071400344A136813F0E6
:2043400008031FD11168090733D51268304A52F8230070472D4AD36803F00303022B4AD0C7
:20436000032B33D0136813F008032AD01368180743D4D2F894301B0903F0F003244A52F888
:20438000233024E013681B070AD51368204AC3F3031352F8230070471E4870471E4870473B
:2043A000D2F894301A4A1B0903F0F00352F823007047D2F89430164AC3F3032352F82300A6
:2043C0007047116809071CD51268D7E7124B0F4AD068D168D268C2F34162C1F30621C0F32D
:2043E0000210013252000130B3FBF0F001FB00F0B0FBF2F07047074BE9E71368C3F30313CE
:20440000BCE7D2F89430C3F30323B7E700100240A46800080024F40000127A00032810B5F7
:204420002ED00C2803D0302849D0002010BD4F4BD3F8883003F00C0343F44023A3F5402365
:204440000C2BF2D801A252F823F000BF0D4500082B4400082B4400082B440008E1440008B0
:204460002B4400082B4400082B4400082D4500082B4400082B4400082B4400083D4500086E
:204480003A4C3B4AD4F8883003F0030343F44033934234D0B3F1031F29D0013A93421FD053
:2044A000FFF73CFFA268A368324C3349C2F30312C3F3C223A25CCB5CD040D84010BD2B4CC6
:2044C0002E4AD4F8883003F0300343F44013934215D009D8B3F5401F39D0103A9342A4D1F1
:2044E000BDE81040FFF71ABFB3F1301F9DD1D4F8900010F0020018BF4FF4004010BD20688A
:204500001F4B10F4806018BF184610BDFFF706FF164B18499A689B68C2F30312C3F30223E4
:20452000895C154AD35CC840D84010BD0F4A144B106810F4806018BF184610BD0B4BD3F8E4
:20454000900010F0020018BF4FF4004010BDFFF7E5FEA268A368074C0749C2F30312C3F391
:204560000223A25CCB5CD040D84010BD0010024002000300D4680008E468000820003000BD
:204580000024F4001D4A0368904210B424D0B0F1804F13D002F5A05290422DD002F58062C3
:2045A000904229D08C680A880360C4628262436910BC43F001034361002070474C68CA682D
:2045C00023F07003234323F44073134303608A680B88C2628362EAE74C68CA6823F07003A1
:2045E000234323F44073134303608A680B88C26283620B690363DAE7CA68F2E7002C014031
:20460000B1F5805F30B4034600F0F18030D8102900F01E81B1F5807F5AD1016A146921F4EA
:2046200080710162016A4568C06921F4007141EA042120F48030146820F07300044350684D
:2046400021F4807141EA0021A148834200F0818000F5A05083427CD000F58060834278D091
:20466000D2685D600020DC61DA6330BC19627047B1F5803F00F08A80B1F5801F52D1016A59
:20468000146821F480110162016A406D20F0807020F4E04040EA0420146921F4001141EA2D
:2046A0000451546821F4801141EA0451884CA34264D004F5A054A34260D004F58064A34212
:2046C0005CD0D268586530BC0020DA6519627047012927D1016A156921F001010162016A4E
:2046E00040689C6921F00201294324F48034156824F073042C43556821F001012943744D4D
:20470000AB4212D005F5A055AB420ED005F58065AB420AD0D26858609C6100205A6330BCB2
:2047200019627047012030BC7047556921F0080141EA8501956920F480702843956821F07F
:20474000040141EA8501D56920F4007040EA4500E0E7506921F4006141EA8021906925F49E
:20476000805545EA0015906821F4806141EA8021D06925F4005545EA401571E75C68956921
:2047800024F4802444EA85245C609AE7016A146821F480310162016A406D20F4803020F04D
:2047A00070002043146921F4003141EA0441546821F4803141EA0441454CA3420FD004F5B3
:2047C000A054A3420BD004F58064A34207D05865D268986D9A65002030BC196270475C688F
:2047E000956924F4803444EA05245C60EFE7016A146921F480510162016A4568C06921F47F
:20480000005141EA043120F08070146820F4E64040EA0424506821F4805141EA00312C4871
:2048200083420FD000F5A05083420BD000F58060834207D0D2685D600020DC611A6430BC20
:2048400019627047906925F4804545EA8015F1E7016A146921F010010162016A4568806945
:2048600021F0200141EA041120F08070146820F4E64040EA0424506821F0100141EA0011A8
:20488000134883420FD000F5A05083420BD000F58060834207D0D2685D6000209C619A6312
:2048A00030BC19627047506921F0800141EA8011906925F4806545EA8005906821F04001DE
:2048C00041EA8011D06925F4006545EAC005E2E7002C014010B4D1E901340A7B224322F488
:2048E00080620C681A4322F400622243CB890C6922F48052134323F400534A6A234323F486
:20490000804313430D4A4C6923F47023904243EA040303D0436410BC002070470A6A8C693C
:2049200023F47003134323F08073CA69234323F000731343436410BC00207047002C014065
:2049400038B50368DB0722D40446D1E903024B680D4603431343AA6921681343224A0A40D4
:20496000134323606368AA68696923F4405313436360A3681D4A23F440730B439442A36089
:2049800007D01B4B9C421CD01A4B9C4215D0012038BD0320FFF742FD0028F8D02B68002BCC
:2049A000F5D0AA69B2F5004F0FD000EB5300B0FBF3F39BB2E360002038BD3020FFF72EFD65
:2049C000EAE70C20FFF72AFDE6E75A084FF6F07102EB4000B0FBF3F303EA0102C3F342033F
:2049E0001343E360002038BDF369FFEF003801400044004000480040014B1860704700BF00
:204A0000E0030020064B0748B3F804C00649074AA0F800C058881B8808801380704700BF78
:204A200054070020F2060020F60600206C0600205C4AD16C41F00101D164D26C82B04FF03B
:204A4000904002F001020192019A0268082393FAA3F33BB1B3FA83F35B00032101FA03F32C
:204A600022EA0302082393FAA3F333B1B3FA83F35B00032101FA03F31A434FF09041402390
:204A80000A600A6893FAA3F33BB1B3FA83F35B00032101FA03F322EA0302402393FAA3F301
:204AA00033B1B3FA83F35B00032101FA03F31A434FF090413B4B0A60DA6C3B4942F40052D0
:204AC000DA64DB6C03F400530093009B8B68D9070CD4364A936823F47C1343F48033936028
:204AE000936823F0E07343F4000393602E4B9A68D20710D59B6858070DD52B4B9A68D1075B
:204B000036D59A68520748D5274A536843F01003536002B07047244BDA6822F47C62DA60A5
:204B2000DA6822F40052DA60DA6842F00302DA60DA6842F48052DA601A6B22F00F0242F080
:204B400002021A631A6B22F4F86242F400721A631A6B22F4F83242F430421A631A6B22F435
:204B6000F80242F488021A630F4B9A68D107C8D40D490F4A4B6923F0E06343F080634B61B3
:204B8000536823F0380343F020035360536823F4600343F400035360B6E79B681B07B3D498
:204BA000E6E700BF0010024000000450000304501400045010B483B00023274A01939368EA
:204BC000D90746D49368254C254823F0204323F03F039360916821F0104121F03F0141F067
:204BE0008051916023681F4A9B09A0FB03139B0903EB83039B00A2FB0323DB080193019B21
:204C00002BB1019B013B0193019B002BF9D1124A936823F0404323F03F0343F00043936010
:204C20009368002BFCDB80230193019B2BB1019B013B0193019B002BF9D1074A936823F06C
:204C4000004323F03F0343F0010393601368DB07FCD503B010BC704700000450E0030020D7
:204C6000632D3E05CDCCCCCC224B102282B083F80B234FF400621A6002F1804202F50232B7
:204C80001D4B916C41F001019164926C02F001020192019A9A6822F4FF4222F0700242F453
:204CA000165242F020029A60D3F8A8200F2022F00F0290FAA0F011481149C3F8A820186190
:204CC0005961DA68120C120442F00302DA609A6842F002029A609A6842F004029A609A68CB
:204CE00042F008029A609A6842F001029A6002B0704700BF00E100E000000240400004508E
:204D0000540700201A491B4A1B4B10B4002401F8044B106C40F480301064106C20F48030A6
:204D2000106441209861154A0A201862107898624FF6FF72DA625869114A40F00100586128
:204D40005C621048104C516614660078D06540F68B119165DA6810BC42F40072DA601A6AC7
:204D600042F001021A621A6842F001021A6070475C0700200010024000400140D20300204F
:204D800000000240CE0300203440014010B41C4C1C4A01232370116C1B4B41F480311164A4
:204DA000116C21F4803111646020184A986103211962117899627322DA62586994F804110A
:204DC000134A144C40F001005861134854661731106640F69B10D1659065DA6810BC42F409
:204DE0000072DA601A6A42F001021A625A6C42F400425A641A6842F001021A60704700BF2F
:204E00005C0700200010024000400140440700200000024044040020344001404FF0904360
:204E2000186900F0040070474FF090420423D26893FAA3F33BB1B3FA83F35B00032101FA28
:204E400003F322EA0302042393FAA3F333B1B3FA83F35B00012101FA03F31A434FF090431D
:204E6000DA607047F0B572B6144E154B42EA002747EA01474FF0170C082500244FF0500E96
:204E800027FA0CF101F00101C1F10200B5614EFA00F05C605A688242FCD30131B5624EFA5D
:204EA00001F15C605A688A42FCD3BCF1010CE7D2024B4FF080729A6162B6F0BD00040048EA
:204EC000001000E0114A0823126893FAA3F33BB1B3FA83F35B00032101FA03F322EA03022F
:204EE000082393FAA3F333B1B3FA83F35B00012101FA03F31A430549054B0A601A68D2072F
:204F000003D41A6842F001021A60704700040048001000E0024BD3F80402C0F3807070471E
:204F200000000140044B1A684FF4800122F480021A605961704700BF00040140024A13684D
:204F400043F480031360704700040140284A1378012B3ED0042B3CD0022B2DD0052B2BD061
:204F6000032B0ED0062B0CD0224B1B78D3B1224B9A6822F480029A60DA6842F48002DA605F
:204F800070471E4AD2F8043223F0D86323F4F87343F0C06343F07003C2F80432154B1B7843
:204FA000002BE4D1144B9A6842F480029A60DA6822F48002DA6070471049D1F8043223F0C8
:204FC000D86323F4F87343F07003C1F804321378C6E70A49D1F8043223F0D86323F4F87325
:204FE00043F0806343F07003C1F804321378B3E738000020350000200004014000000140AE
:205000002DE9F0430029B4BFCE1C0E4626F00303073385B023F0070300AFADEB030DB610A8
:205020006D4688468146144600213246284601F01DFCB8F1030F17DD4846291F002283781B
:2050400090F8038090F800E090F801C01B0443EA086343EA0E03013243EA0C23964241F8FF
:20506000043F00F10400EADC304A7E601369D903FCD45369002B04DA2D4BD3E900139160B5
:205080009360C4F30A03D3B9284A516941F0020151615169E30A41EAC3035361536943F47C
:2050A000803353611369DB03FCD41369DE0744BF012313611D4A536923F002035361002351
:2050C000BB60FB60FB687A689A4226D9174901224B6943F001034B61F868BB6855F8200030
:2050E0001851F868BB680130043355F8200018510B69D803FCD40B69DB0748BF0A614B69EB
:2051000023F001034B61BB680833BB60FB680233FB60F8687B689842DAD3044A5369143741
:2051200043F000435361BD46BDE8F08300200240D4030020002A09DD431E013103EB020C32
:20514000081AC25C03F8012F6345FAD1704700BF024B034A9A6062B6704700BF00ED00E00C
:20516000001000082C4A136823F0070343F004031360136803F00703042BFAD1274A1368FE
:2051800023F4C06343F40073136053695905FCD4234B1A6842F001021A601A689207FCD543
:2051A0001968204A1E4841F008011960196821F0F00141F060011960596821F47F4159600E
:2051C000D9680A4042F4205242F00102DA60DA6842F08072DA601A6842F080721A60036802
:2051E0009B01FCD583680E4A43F003038360936803F00C030C2BFAD193680B4823F0F00390
:205200009360936823F4E0639360936823F460539360FFF7F1BB00BF002002400070004028
:20522000001002408C80FFF900B4C40430B5002491B0CDE90444CDE90644CDE90844CDE99C
:205240000C44CDE90E44314B3148DA6C42F00202DA64DA6C02F002020392039ADA6C42F061
:205260000102DA64DB6C03F00103029303250AA990230A930B95029BFEF770FF10230AA968
:205280004FF090400A930B950E94FEF767FF20230AA94FF090400A930B950E94FEF75EFF8F
:2052A000702304A91B48CDE90634CDE90444CDE90844FEF737FF1849184BD1F8042218481D
:2052C00022F40072C1F804221B680194A0FB0313C822DB0C02FB03F30193019B2BB1019B32
:2052E000013B0193019B002BF9D10E4B0E495A6822F480025A601A68002022F480021A60D5
:2053000081F8400301238B6011B030BD00100240000400480402014000000140E0030020EB
:2053200083DE1B430004014000E100E0084B10B445F255524CF6CC441C6002201A604FF406
:205340007A614AF6AA22586010BC99601A60704700300040F0B50024A1B0214620220EA8CF
:20536000CDE90344CDE90544079401F07FFA2822214616A801F07AFACDE90844CDE90A4452
:20538000CDE90C44724E734D336E734F43F400633366336E03F400630293029B03A940F6E2
:2053A000065328460593FFF7EDF82B6843F080032B60AB6823F4A03323F00703AB60D7F8EB
:2053C000183C43F00803C7F8183C0EAA6023012128460E93CDE90F44CDE91144CDE913449B
:2053E0001594FFF70DF9D7F8183C23F00403C7F8183CD7F8183C43F40063C7F8183C0EAA30
:2054000010212846CDE90F44FFF7FAF8D7F8183C23F48063C7F8183CD7F81C3C43F0080367
:205420000EAAC7F81C3C4FF480712846CDE90F44FFF7E6F8D7F81C3C23F00403C7F81C3CC6
:20544000D7F81C3C43F400630EAAC7F81C3C4FF480512846CDE90F44FFF7D2F8D7F81C3C4A
:2054600023F48063C7F81C3C6B6823F070036B60AB6823F08003AB602D2316A98DF864301B
:2054800028464FF400531A93CDE916441894ADF866401F94FFF71EFAF36C43F00103F364A6
:2054A000F36C03F001030193019BF36C02273B43F364F36C294E08973B400125009308A9AF
:2054C0003046009B0D95CDE90974CDE90B44FEF745FE08A93046CDE90857CDE90A44CDE9B3
:2054E0000C45FEF73BFE802308A94FF090400893CDE90974CDE90B440D95FEF72FFE4FF4F0
:20550000806308A94FF090400893CDE90974CDE90B440D95FEF722FE4FF4007308A94FF0B8
:2055200090400893CDE90974CDE90B440D95FEF715FE4FF4807308A94FF09040CDE90974F5
:20554000CDE90B4408930D95FEF708FE21B0F0BD00100240002C0140002001400004004824
:2055600030B5002387B0CDE90233CDE90433124A0193936D114C43F020039365936D03F086
:20558000200300934F224FF6FF7301A920460393009DADF80420FEF7F5FF236823F0800317
:2055A0002360636823F070036360A36823F08003A36007B030BD00BF0010024000140040A7
:2055C00010B5002386B0CDE90133CDE90333124A0593116E114841F400311166126E02F4B8
:2055E00000320092009A80F819334FF0007202600B4C27204FF6FF72ADF8040001A9204669
:20560000CDE90232CDE90433FEF7BCFF236843F08003236006B010BD0010024000E100E0A9
:205620000044014030B5002289B0CDE90522324B1A6E42F480321A661A6E02F48032019298
:20564000019ADA6C42F00102DA64DB6C042103F001030291009302240E2502A94FF090405A
:20566000009B0795CDE90344FEF778FD234AD2F8A8204FF4702322F4702293FAA3F32BB110
:20568000B3FA83F3072101FA03F31A431B4B1C49C3F8A8209A6D22F4804222F010029A6521
:2056A0009A6D22F4405242F400529A659A6D22F020029A659A6D22F040029A659A6D42F0E7
:2056C00080029A659A6D22F4407242F480729A659A6D22F44062102042F400629A6581F854
:2056E0000F034FF400430B60064B00213F229962DA6209B030BD00BF0010024000000240A4
:2057000000E100E0004001404A4B4B4A186E4B4930B540F001001866186E494D89B000F02A
:20572000010002900298986D40F080509865986D00F080500190019BD3684FF6FF04234062
:205740001943D160D2683B4CC2F30222C2F10701131D042928BF0421062B4FF0FF3303FA5F
:2057600001F38CBF033A0022DB4393401B01324ADBB282F82330FFF7F5FCE36C43F001033B
:20578000E364E36C03F001030693069BE36C43F00203E364E36C4FF0904103F00203079383
:2057A0004FF40042079B8A62A36C43F00103A364A36C03F0010305932021059B85F80E136C
:2057C0004FF480432B60102385F80F332A60FFF7C1FDA36D43F00103A365A36D03F00103B2
:2057E0004FF080420493049B27214FF6FF739162D362FFF71BFDFFF7E3FEA36D43F0100310
:20580000A365A36D03F0100303933022039B85F836234FF480036B600A4B4F213222996269
:20582000DA62FFF79DFEFFF7FDFE09B0BDE8304000F004BE0010024000ED00E00003FA0509
:2058400000E100E000100040014B5863704700BF002C0140014B9863704700BF002C014023
:20586000014BD863704700BF002C0140024A536943F0010353617047002C0140024B002238
:205880009A625A62704700BF00400140514B524A196A41F0010100B51962196A41F0100176
:2058A0001962196A41F480711962196A41F004011962196A41F040011962196A41F480610C
:2058C0001962196A642041F4805119621864196841F001011960596C41F400415964596962
:2058E00041F001015961136A43F001031362136843F0010383B01360FFF7E4FA00221146ED
:20590000FF20FFF7AFFA354B3549186840F001001860586940F001005861D86840F0010086
:20592000D860D86820F00100D860086840F00100086048694FF0804240F001004861116898
:2059400041F0010111605169A3F59A3341F0010151611A6842F001021A605A6942F0010276
:205960005A61DA6842F00102DA60FFF761F8FFF77BF9FFF71FF91B4A1B4900230193D2F8AA
:20598000043243F00103C2F804320B68174A9B09A2FB03239B09164A03EB83031B01A2FB3E
:2059A0000323DB080193019B2BB1019B013B0193019B002BF9D10F4B202283F828234FF430
:2059C00080725A600C4A136843F40043136003B05DF804FB002C01400040014000440140E3
:2059E0000014004000000140E0030020632D3E05CDCCCCCC00E100E0000401404FF09042F4
:205A00004FF48063126893FAA3F33BB1B3FA83F35B00032101FA03F322EA03024FF480630D
:205A200093FAA3F333B1B3FA83F35B00012101FA03F31A434FF090434FF480611A609962C6
:205A40001A684FF4007393FAA3F33BB1B3FA83F35B00032101FA03F322EA03024FF40073A5
:205A600093FAA3F333B1B3FA83F35B00012101FA03F31A434FF090434FF400711A609962F6
:205A80001A684FF4807393FAA3F33BB1B3FA83F35B00032101FA03F322EA03024FF4807365
:205AA00093FAA3F333B1B3FA83F35B00012101FA03F31A434FF090432A491A604FF48070BF
:205AC00098620A68022393FAA3F33BB1B3FA83F35B00032101FA03F322EA0302022191FAD4
:205AE000A1F32BB1B3FA83F35B0001FA03F31A431C490A600A68012393FAA3F33BB1B3FA49
:205B000083F35B00032101FA03F322EA0302012393FAA3F333B1B3FA83F35B00022101FAC7
:205B200003F31A430F494FF090430A601A68802393FAA3F33BB1B3FA83F35B00032101FA6D
:205B400003F322EA0302802393FAA3F333B1B3FA83F35B00022101FA03F31A434FF0904393
:205B60001A607047000400482D4B2E4A1B78002B3AD11268012393FAA3F33BB1B3FA83F31F
:205B80005B00032101FA03F322EA0302012191FAA1F32BB1B3FA83F38B4001FA03F31A432B
:205BA000204B01211A6099624FF090424FF40073126893FAA3F33BB1B3FA83F35B000321F1
:205BC00001FA03F322EA03024FF4007393FAA3F333B1B3FA83F35B00022101FA03F31A4317
:205BE0004FF090431A6070471268012393FAA3F33BB1B3FA83F35B00032101FA03F322EA16
:205C00000302012393FAA3F333B1B3FA83F35B00022101FA03F31A43024B1A60C4E700BF34
:205C200004000020000400481F4A0123126893FAA3F33BB1B3FA83F35B00032101FA03F34B
:205C400022EA0302012191FAA1F32BB1B3FA83F38B4001FA03F31A43134B01204FF090414B
:205C60001A6098620A684FF4007393FAA3F33BB1B3FA83F38340032101FA03F322EA03026D
:205C80004FF4007393FAA3F333B1B3FA83F35B00012101FA03F31A434FF090434FF4007193
:205CA0001A609962704700BF000400481F4A0123126893FAA3F33BB1B3FA83F35B000321F5
:205CC00001FA03F322EA0302012191FAA1F32BB1B3FA83F38B4001FA03F31A43134B0120EA
:205CE0004FF090411A6098610A684FF4007393FAA3F33BB1B3FA83F38340032101FA03F3EF
:205D000022EA03024FF4007393FAA3F333B1B3FA83F35B00012101FA03F31A434FF09043B5
:205D20004FF400711A609962704700BF000400482F4B1B784FF09042002B3CD11268802305
:205D400093FAA3F33BB1B3FA83F35B00032101FA03F322EA0302802393FAA3F333B1B3FA39
:205D600083F35B00012101FA03F31A434FF0904380211A6099624FF090424FF480731268F9
:205D800093FAA3F33BB1B3FA83F35B00032101FA03F322EA03024FF4807393FAA3F333B113
:205DA000B3FA83F35B00022101FA03F31A434FF090431A6070471268802393FAA3F33BB185
:205DC000B3FA83F35B00032101FA03F322EA0302802393FAA3F333B1B3FA83F35B000221D4
:205DE00001FA03F31A434FF090431A60C3E700BF040000204FF090428023126893FAA3F3EB
:205E00003BB1B3FA83F35B00032101FA03F322EA0302802393FAA3F333B1B3FA83F35B00CA
:205E2000012101FA03F31A434FF0904380211A6099621A684FF4807393FAA3F33BB1B3FA56
:205E400083F35B00032101FA03F322EA03024FF4807393FAA3F333B1B3FA83F35B0001216E
:205E600001FA03F31A434FF090434FF480711A60996270474FF090428023126893FAA3F311
:205E80003BB1B3FA83F35B00032101FA03F322EA0302802393FAA3F333B1B3FA83F35B004A
:205EA000012101FA03F31A434FF0904380211A6099611A684FF4807393FAA3F33BB1B3FAD7
:205EC00083F35B00032101FA03F322EA03024FF4807393FAA3F333B1B3FA83F35B000121EE
:205EE00001FA03F31A434FF090434FF480711A60996270472D4B2E4A1B78002B3BD11268AE
:205F0000022393FAA3F33BB1B3FA83F35B00032101FA03F322EA0302022393FAA3F333B17D
:205F2000B3FA83F35B00012101FA03F31A43204B02211A6099624FF090424FF480631268BF
:205F400093FAA3F33BB1B3FA83F35B00032101FA03F322EA03024FF4806393FAA3F333B161
:205F6000B3FA83F35B00022101FA03F31A434FF090431A6070471268022393FAA3F33BB141
:205F8000B3FA83F35B00032101FA03F322EA0302022191FAA1F32BB1B3FA83F35B0001FAC6
:205FA00003F31A43024B1A60C5E700BF04000020000400481F4A0223126893FAA3F33BB1D5
:205FC000B3FA83F35B00032101FA03F322EA0302022393FAA3F333B1B3FA83F35B00012151
:205FE00001FA03F31A43134B02204FF090411A6098620A684FF4806393FAA3F33BB1B3FAFB
:2060000083F35B00032101FA03F322EA03024FF4806393FAA3F333B1B3FA83F35B000121BC
:2060200001FA03F31A434FF090434FF480611A6099627047000400481F4A0223126893FACF
:20604000A3F33BB1B3FA83F35B00032101FA03F322EA0302022393FAA3F333B1B3FA83F3CB
:206060005B00012101FA03F31A43134B02204FF090411A6098610A684FF4806393FAA3F397
:206080003BB1B3FA83F35B00032101FA03F322EA03024FF4806393FAA3F333B1B3FA83F320
:2060A0005B00012101FA03F31A434FF090434FF480611A6099627047000400485D4A02239B
:2060C000126893FAA3F33BB1B3FA83F35B00032101FA03F322EA0302022393FAA3F333B167
:2060E000B3FA83F35B00012101FA03F31A43514B02204FF090411A6098620A684FF48063D8
:2061000093FAA3F33BB1B3FA83F35B00032101FA03F322EA03024FF4806393FAA3F333B19F
:20612000B3FA83F35B00012101FA03F31A434FF0904340491A604FF4806098620A680123A9
:2061400093FAA3F33BB1B3FA83F35B00032101FA03F322EA0302012191FAA1F32BB1B3FAC2
:2061600083F38B4001FA03F31A43324B01204FF090411A6098620A684FF4007393FAA3F323
:206180003BB1B3FA83F38340032101FA03F322EA03024FF4007393FAA3F333B1B3FA83F327
:2061A0005B00012101FA03F31A434FF090434FF400711A6099621A68802393FAA3F33BB1A5
:2061C000B3FA83F35B00032101FA03F322EA0302802393FAA3F333B1B3FA83F35B000121D1
:2061E00001FA03F31A434FF0904380211A6099621A684FF4807393FAA3F33BB1B3FA83F33F
:206200005B00032101FA03F322EA03024FF4807393FAA3F333B1B3FA83F35B00012101FA25
:2062200003F31A434FF090434FF480711A609962704700BF00040048013808B5052834D85F
:20624000DFE800F00B131B232B03FFF7EDFCFFF711FEBDE80840FFF74DBEFFF7CBFDFFF777
:2062600025FDBDE80840FFF745BEFFF7A3FEFFF71DFDBDE80840FFF75BBDFFF7D5FCFFF7B7
:20628000DBFEBDE80840FFF753BDFFF7B3FDFFF7D3FEBDE80840FFF767BCFFF78BFEFFF74A
:2062A000E9FDBDE80840FFF75FBC08BD5D4A0223126893FAA3F33BB1B3FA83F35B0003213E
:2062C00001FA03F322EA0302022393FAA3F333B1B3FA83F35B00012101FA03F31A43514B06
:2062E00002204FF090411A6098610A684FF4806393FAA3F33BB1B3FA83F35B00032101FAB5
:2063000003F322EA03024FF4806393FAA3F333B1B3FA83F35B00012101FA03F31A434FF01C
:20632000904340491A604FF4806098620A68012393FAA3F33BB1B3FA83F35B00032101FA28
:2063400003F322EA0302012191FAA1F32BB1B3FA83F38B4001FA03F31A43324B01204FF000
:2063600090411A6098610A684FF4007393FAA3F33BB1B3FA83F38340032101FA03F322EA9B
:2063800003024FF4007393FAA3F333B1B3FA83F35B00012101FA03F31A434FF090434FF4F8
:2063A00000711A6099621A68802393FAA3F33BB1B3FA83F35B00032101FA03F322EA03021F
:2063C000802393FAA3F333B1B3FA83F35B00012101FA03F31A434FF0904380211A609961FE
:2063E0001A684FF4807393FAA3F33BB1B3FA83F35B00032101FA03F322EA03024FF48073FC
:2064000093FAA3F333B1B3FA83F35B00012101FA03F31A434FF090434FF480711A609962CC
:20642000704700BF0004004808B5FFF763FDFFF79BFBBDE80840FFF77BBC00BF30B500231A
:2064400091B0CDE90933CDE90B33CDE90D33CDE905334D4A0F93D2F8883023F00303C2F8A3
:206460008830136E43F480431366136E03F480430293029BD36C02242343D364D36C04942A
:20648000234001934021019803910122072303A93E48CDE90723FDF761FE3D4AD2F8A820AC
:2064A0004FF4704322F4704293FAA3F323B1B3FA83F304FA03F31A43354B364CC3F8A8202E
:2064C0005A6C22F4804222F0100242F010025A645A6C22F440525A645A6C22F020025A6414
:2064E0005A6C22F040025A645A6C42F080025A645A6C22F440725A645A6C22F440625A6404
:2065000000250C234FF4E13209A920460D93CDE90925CDE90B550F95FEF712FA636823F498
:2065200090436360A36823F02203A360A36843F00803A360236843F001032360E3699A0206
:20654000FCD5E3695B02F9D5114B13485A6C44F210010A40102A11490BBF1865D864D96491
:2065600019650B4B0E499A6C0978120C12040A439A645A6C42F002025A645A6C42F008022E
:206580005A6411B030BD00BF0010024000040048000002400038014064080020283801404A
:2065A000DC030020154A52E8003F23F00C0343F0080342E800310029F5D111481149836CB8
:2065C00009781B0C1B040B430F49836451E8003F43F0800341E800300028F7D108494B6CE8
:2065E00043F001034B6452E8003F23F00C0343F0040342E800310029F5D170470038014066
:2066000000000240DC0300200838014010B5174CBDF808C02271120AE2701A0AA17062710A
:20662000090A4FEA1C22617084F808C02070A371E271A44604F1080E0021414008224B00B8
:2066400011F0800F83F0070314BFD9B2490002F1FF3308BFC9B213F0FF02F0D1F44502D04F
:206660001CF8010FE9E7617210BD00BF64080020FEE700BFFEE700BFFEE700BFFEE700BFAB
:20668000FEE700BF704700BF704700BF704700BF704700BF08B5074B1A68910703D501225A
:2066A0005A60FEF7AFF9034B1A68120644BF80225A6008BD00000240074B1A68910402D4F6
:2066C0001A68120406D54FF480525A605A6C22F001025A64704700BF0000024008B5234BFC
:2066E0001B7813B1224B1B784BBB224B1A6850030CD5214A12784AB120490A6A22F00A022F
:206700004FF4802042F002020A625860194B1A6891030DD55A68002142F480325A6099655D
:20672000FDF73AFA164A136943F40043136108BD1A681203FBD54FF480325A6008BD0D4B6F
:2067400010495A68002042F480325A6098650B782BB1FEF7D7FA0C4B02221A70E2E7FEF777
:2067600015FB094B01221A70DCE700BFAC060020ED06002000000240970500200040014022
:20678000000401405C070020C0060020044B1A69D20700D470476FF001021A61FCF786BA05
:2067A0000010004010B5054C2369DB0700D410BDFBF7B8FC6FF00103236110BD0044014085
:2067C000044B5A69520200D470474FF480025A61FBF7E6BC00040140044A054913684FF415
:2067E0000040013313604861FCF746B970080020000401400A4B1A68002142F001021A6093
:2068000099601A6822F0A85222F410224FF480501A60D8601A6822F480221A60996170477F
:206820000010024070B50D4D0D4C641BA4100026A64209D10B4D0C4C00F020F8641BA41028
:206840000026A64205D170BD55F8043B98470136EEE755F8043B98470136F2E7FC680008C9
:20686000FC680008FC6800080069000802440346934200D1704703F8011BF9E7F8B500BF80
:20688000F8BC08BC9E467047F8B500BFF8BC08BC9E467047191B12131D1516171A090A0B76
:2068A0001E0D0E0FA0860100400D0300801A060000350C0040420F0080841E0000093D003F
:2068C00000127A000024F40000366E010048E801006CDC02000000000000000001020304EA
:2068E00006070809000000000102030456696D64726F6E654C34333100000000AD1600087D
:206900008916000800F8000801010102060D060D78002D002D00D0070E004C046C07DC054A
:2069200064004A01050A0A2D9001C800FF00CA00050114004600DC050201030101010000F6
:20694000D43000000105010AE803000010270000000000000A000000000000006400000092
:20696000000000000000000000000000000000001027000050C30000B400D007D00700006B
:20698000B400B700BA00BD00C100C400C700CA00CD00D000D300D600D900DC00E000E30041
:2069A000E600E900EC00EF00F200F500F700FA00FD0000010301060109010B010E01110115
:2069C0001301160119011B011E0120012301250128012A012C012F01310133013501380146
:2069E0003A013C013E014001420144014601470149014B014D014E01500151015301540109
:206A00005601570158015A015B015C015D015E015F01600161016201630163016401650184
:206A20006501660166016701670167016801680168016801680168016801680168016701D1
:206A40006701670166016601650165016401630163016201610160015F015E015D015C01FF
:206A60005B015A0158015701560154015301510150014E014D014B01490147014601440104
:206A8000420140013E013C013A0138013501330131012F012C012A012801250123012001CA
:206AA0001E011B0119011601130111010E010B010901060103010001FD00FA00F700F50030
:206AC000F200EF00EC00E900E600E300E000DC00D900D600D300D000CD00CA00C700C40007
:206AE000C100BD00BA00B700B400B100AE00AB00A700A400A1009E009B0098009500920005
:206B00008F008C008800850082007F007C0079007600730071006E006B00680065006200F5
:206B20005F005D005A005700550052004F004D004A0048004500430040003E003C00390098
:206B400037003500330030002E002C002A00280026002400220021001F001D001B001A00BC
:206B600018001700150014001200110010000E000D000C000B000A00090008000700060030
:206B80000500050004000300030002000200010001000100000000000000000000000000DA
:206BA0000000000000000100010001000200020003000300040005000500060007000800A5
:206BC00009000A000B000C000D000E0010001100120014001500170018001A001B001D0093
:206BE0001F00210022002400260028002A002C002E00300033003500370039003C003E00BB
:206C000040004300450048004A004D004F005200550057005A005D005F006200650068003B
:206C20006B006E0071007300760079007C007F008200850088008C008F0092009500980044
:206C40009B009E00A100A400A700AB00AE00B1002D001E0303000000000000009001000023
:206C600000000000E803000000000000000000000000000000000000204E0000A086010094
