:020000040800F2
:1000000000100020CD0100081D0200081D0200089C
:100010001D0200081D0200081D020008000000006B
:100020000000000000000000000000001D020008A9
:100030001D020008000000001D0200081D0200084B
:100040001D0200081D0200081D0200081D02000814
:100050001D0200081D0200081D0200081D02000804
:100060001D0200081D0200081D0200081D020008F4
:100070001D0200081D0200081D0200081D020008E4
:100080001D0200081D0200081D0200081D020008D4
:100090001D0200081D0200081D0200081D020008C4
:1000A0001D0200081D0200081D0200081D020008B4
:1000B0001D02000800000000000000001D020008F2
:1000C0001D0200081D0200081D0200081D02000894
:1000D0001D0200081D0200081D0200081D02000884
:1000E0001D0200081D0200080000000000000000C2
:1000F0000000000000000000000000000000000000
:10010000000000001D020008000000001D020008A1
:1001100000000000000000001D0200081D02000891
:100120001D0200081D0200081D0200081D02000833
:100130001D02000800000000000000000000000098
:100140001D0200081D0200081D020008000000003A
:100150001D0200081D0200081D0200081D02000803
:100160001D0200081D0200081D020008000000001A
:100170001D0200081D020008000000000000000031
:0C0180001D0200081D0200081D020008FE
:10018C0010B5054C237833B9044B13B10448AFF3C5
:10019C0000800123237010BD180200200000000015
:1001AC002C0D000808B5034B1BB103490348AFF3F2
:1001BC00008008BD000000001C0200202C0D00086F
:1001CC00DFF834D000F046FA0C480D490D4A0023F4
:1001DC0002E0D458C4500433C4188C42F9D30A4AF0
:1001EC000A4C002301E013600432A242FBD300F05E
:1001FC004DFD00F089FAFEE7001000200000002001
:10020C00000000204C0D00080000002034020020EB
:10021C00FEE70000284B98420AD103F564431A6CA0
:10022C0042F400621A641A6C22F400621A640BE045
:10023C00B0F1804F0AD1214B9A6B42F001029A63C4
:10024C009A6B22F001029A63002070471C4B984273
:10025C0009D103F500339A6B42F010029A639A6B42
:10026C0022F01002EFE7174B984209D103F5FE3349
:10027C009A6B42F020029A639A6B22F02002E2E71A
:10028C00114B984209D103F550431A6C42F4803259
:10029C001A641A6C22F48032C8E70C4B984209D1CC
:1002AC0003F54C431A6C42F400321A641A6C22F4B3
:1002BC000032BBE701207047002C014000100240C7
:1002CC000010004000140040004001400044014078
:1002DC001A4A0368904210B502D0B0F1804F09D190
:1002EC004C6823F07003904243EA040309D0B0F148
:1002FC00804F06D0124A904203D002F580629042A1
:10030C0003D1CA6823F44073134303608B68C36240
:10031C000B888362094B984207D003F5A05398428F
:10032C0003D003F58063984201D10B6903634369E1
:10033C0043F001034361002010BD00BF002C0140BD
:10034C000040014042EA01032DE9F34105465807FC
:10035C000E4654D12B4C236943F4434343F0FA0328
:10036C008F082361236913F48033FBD16169002961
:10037C00BFBF2549A16001F18831A160C2F30A0118
:10038C0071B9204C022161616169D00A41EAC00156
:10039C006161616941F4803161612169C903FCD4F7
:1003AC00184C96464FF00108BB420ED3636943F0DC
:1003BC000043636132467146284600F08BFCB0FA6C
:1003CC0080F0400902B0BDE8F08105EB830155F8DF
:1003DC0023004968EC46ACE80300C4F8148000998B
:1003EC00116001995160216911F48031FBD12069B0
:1003FC0040F001002061023361610832D4E7002033
:10040C00E0E700BF002002402301674500F072BC0A
:10041C0010B5124B1B78012B03D0114B00221A8004
:10042C0010BD104C236803F16043B3F5803FF4D842
:10043C00636803F17843A3F58053B3F5802FECD8B0
:10044C0072B64FF08040FFF7E5FE0749D4E9003261
:10045C008C609D4683F308881047E1E700F800089C
:10046C00000000200010000800ED00E04FF0904369
:10047C001869C0F3800070474FF090431A6804234A
:10048C0093FAA3F3B3FA83F303215B0001FA03F3AA
:10049C0022EA0302042393FAA3F3B3FA83F35B0077
:1004AC0098404FF0904310431860704710B50446C5
:1004BC000020FFF7E1FF4FF09043D868042393FA34
:1004CC00A3F3B3FA83F303225B0002FA03F320EAEB
:1004DC000303042090FAA0F0B0FA80F0400004FA74
:1004EC0000F018434FF09043D86010BD0120FFF787
:1004FC00DDBF000070B5144BD3F89430DB00ADF5C4
:10050C00806D1ED5114CA3780D2B1AD0013BDBB29C
:10051C00FD2B16D84FF480622146684600F0EAFBAA
:10052C000B4E0D238DF802306D46224628464FF4B3
:10053C00807104F58074FFF705FFB44205F58075F2
:10054C00F3D10DF5806D70BD0010024000F800086D
:10055C0000FC00084FF08041044B4A6A92B25A806A
:10056C004B6A9B1A9BB29842FAD870470000002045
:10057C0010B54FF090440423A3610120FFF77CFFDA
:10058C00636823F0040363603420BDE81040FFF778
:10059C00E1BFF8B54FF0904604270546B76234200A
:1005AC00FFF7D8FF0824EB074CBFB761B7623420C4
:1005BC00013CFFF7CFFF14F0FF044FEA5505F2D1D1
:1005CC004FF0904304229A61F8BD000008B5FFF784
:1005DC00CFFFC120FFF7DDFFFFF788FF024A13882A
:1005EC000133138008BD00BF0000002008B5FFF7E1
:1005FC00BFFF3020FFF7CDFFFFF778FF014B002244
:10060C001A8008BD0000002008B5FFF7B1FFC2201A
:10061C00FFF7BFFFFFF76AFF024A1388013313800D
:10062C0008BD00BF0000002038B5FFF7A1FF084D42
:10063C00002415F8010BFFF7ACFF01343420FFF751
:10064C0089FF092CF5D1BDE83840FFF74FBF00BF3B
:10065C00E80F0008124B1A68002142F001021A60E0
:10066C0099601A6822F0A85222F410221A604FF4F2
:10067C008052DA601A6822F480221A6099619A6DAD
:10068C0042F080529A659B6D064A82B003F080530B
:10069C000193019B136843F48073136002B070479D
:1006AC0000100240007000400023F0B504464AF2EE
:1006BC0001071846994200DCF0BDE55C082285EA8A
:1006CC00000616F0010F4FEA500018BF784002F1F7
:1006DC00FF3218BF80B212F0FF024FEA5505EED17F
:1006EC000133E7E710B5074C0146201DFFF7DCFF8F
:1006FC0021444A790B7943EA02231B1A5842584188
:10070C0010BD00BF000000202DE98048A54A89B02B
:10071C00136823F0070343F0040300AF136013685E
:10072C0003F00703042BFAD19F4A136823F4C06328
:10073C0043F40073136053695C05FCD49B4D2B6828
:10074C0043F001032B60D5F8943043F00103C5F856
:10075C009430D5F894309807FBD52B689907FCD5C5
:10076C00D5F8903023F4407343F40073C5F89030FF
:10077C00D5F8903043F40043C5F890302B6843F023
:10078C0008032B602B6823F0F00343F060032B600D
:10079C006B6823F47F436B60EA68854B134043F42A
:1007AC00205343F00103EB60EB6843F08073EB6084
:1007BC002B6843F080732B602B689A01FCD5AB68D7
:1007CC0043F00303AB60AB6803F00C030C2BFAD1C2
:1007DC00AB68784C23F0F003AB60AB6823F4E063B8
:1007EC00AB60AB6823F460531422AB60002107F1BB
:1007FC000C0000F08DFAAB6D43F00103AB65AB6DF3
:10080C0003F001037B607B684F2307F10C01BB8174
:10081C004FF080404FF0FF337B61FFF759FD4FF0F5
:10082C00804302201A6822F080021A609A6822F42F
:10083C00A03222F007029A605A6822F070025A60C5
:10084C009A6822F080029A601A6822F070021A608C
:10085C001A6842F001021A60EB6C43F00103EB647E
:10086C00EB6C03F00103FB60FB68EB6C43F00203E1
:10087C00EB64EB6C03F00203BB60BB684FF090437E
:10088C0004229A62FFF712FE4FF4FA70FFF762FE31
:10089C000026FFF7EBFD20B9B4F806310133A4F8BC
:1008AC0006310A20FFF756FEB4F80631B3F5E17FA6
:1008BC0088BF4FF47A660136B6F57A6FE9DBB3F58B
:1008CC00E17F05D9D5F89430DB0001D4FFF7A0FD0A
:1008DC000120FFF7EBFD4FF4FA70FFF73BFE0546E6
:1008EC00FFF7C4FD20B9B4F806310133A4F8063182
:1008FC000A20FFF72FFE013DF2D1B4F80631DBB12F
:10090C002846A4F80651FFF7D1FD4FF4FA70FFF713
:10091C0021FE0546FFF7AAFD20B9B4F806310133D4
:10092C00A4F806310A20FFF715FE013DF2D1B4F808
:10093C0006310BB1FFF76CFD0020FFF7B7FDFFF799
:10094C00D9FD4FF080494FF000084FF4817200211F
:10095C001948C4F8088184F80C8100F0D9F9FFF724
:10096C00C5FDDFF854B04FF0000A84F80D81D9F8BA
:10097C00242092B2628044F62061FFF777FD0028B4
:10098C004DD0D9F8242092B26280FFF76FFD002879
:10099C0056D11A20FFF7DEFDFFF768FD064600284A
:1009AC0045D10BE0002002400070004000100240D6
:1009BC008C80FFF900000020040000203420FFF799
:1009CC00C9FDFFF753FD00FA06F594F80D01013649
:1009DC000543EDB2082E84F80D51EFD13420FFF70A
:1009EC00B9FDFFF743FD10B394F80E21012384F8F1
:1009FC000C31002A49D0B4F81021D4F80831023255
:100A0C009A422BD001338BF80050C4F808310AF10C
:100A1C00010ABAF5817F0BF1010BA6D11BE0D9F8C5
:100A2C0024309B1A9BB28B42A7D96523238094F860
:100A3C000C3183B92388642B87D9FFF7E9FC82E753
:100A4C00D9F824309B1A9BB2B3F5827F9DD994F8C8
:100A5C000C31002B99D094F80E31FBB1B4F8105135
:100A6C002846FFF73FFE98B34FF48072002183486D
:100A7C0000F04EF982492A4601F5877000F03AF9E8
:100A8C00FFF7B4FD84F80E81D4E7D9F824306188DF
:100A9C005B1A9BB2FA2B10D9C4F80821237D20795C
:100AAC007D2B18D1237B0D2BC4D1637B422BC1D161
:100ABC00FFF7BAFD84F81880BCE740F201139A45A1
:100ACC0008BF23888BF8005004BF143323809EE7A3
:100ADC00FFF79AFDAEE7237E7D2B05D1237C0D2BF2
:100AEC0002D1637C422BE3D094F82C307D2B07D1C0
:100AFC0094F824300D2B03D194F82530422BD7D009
:100B0C0080B9A27963791343E279134301D1652348
:100B1C002380FFF72DFDC120FFF73BFD2388013318
:100B2C00238043E001281ED10220FFF7DBFD0028C3
:100B3C00CED0D4F81422534B9A4202D8FFF746FD7C
:100B4C0078E7514BB4F810119A4204D1022984BFB2
:100B5C000D2384F814314948FFF7F4FB0028EDD03D
:100B6C00FFF744FD66E7FF280ED10420FFF7BAFD1E
:100B7C000028ADD0E388A4F800805BBA9BB203F1E7
:100B8C000063C4F81432EBE7FE2812D10420FFF7FF
:100B9C00A9FD00289CD0A379012B14BFE3794FF455
:100BAC008073A4F81031012384F80E31FFF79EFCFA
:100BBC0040E7FD280AD10220FFF794FD002887D0DA
:100BCC00FFF7D6FCC120FFF7E4FCEFE702280AD1BF
:100BDC00FFF788FD00283FF47BAFD4F81422294B93
:100BEC009A42ABD9BCE7032893D102206E46FFF79B
:100BFC0079FD18B9FFF708FDB5461BE794F805B069
:100C0C00D4F80831BBF1000F08BF4FF4807B0133DF
:100C1C00C4F80831FFF7ACFC0BF10A0323F007030F
:100C2C00ADEB030D0BF103052A460021684600F0DD
:100C3C006FF85A46D4F814126846FFF7E7FB59468A
:100C4C006846FFF731FD4B1C0DF80B000231000A12
:100C5C000DF8030030230DF80130EA464FF0000B7D
:100C6C001AF80B00FFF795FC0BF1010B3420FFF782
:100C7C0071FC5D45F4DCFFF739FCBDE71201002087
:100C8C0004000020FF0F000800F8000870B50D4D9F
:100C9C000D4C641BA4100026A64209D10B4D0C4C24
:100CAC0000F03EF8641BA4100026A64205D170BDCE
:100CBC0055F8043B98470136EEE755F8043B984746
:100CCC000136F2E7440D0008440D0008440D0008FD
:100CDC00480D000810B501390244904201D10020A2
:100CEC0005E0037811F8014FA34201D0181B10BD89
:100CFC000130F2E70A44914200F1FF3300D1704712
:100D0C0010B511F8014B03F8014F9142F9D110BD08
:100D1C0002440346934200D1704703F8011BF9E7E4
:100D2C00F8B500BFF8BC08BC9E467047F8B500BFCC
:080D3C00F8BC08BC9E4670479C
:040D4400B1010008F1
:040D48008D01000811
:100FE000DAE32559D963B84E3437310235060601A4
:040FF00030000000CD
:04000005080001CD21
:00000001FF
