:020000040800F2
:1010000000000120993A0008095F00080D5F000800
:10101000115F0008155F0008195F0008000000005C
:101020000000000000000000000000001D5F00083C
:10103000215F000800000000255F0008295F00080C
:10104000E93A0008E93A0008E93A0008E93A0008F4
:10105000E93A0008E93A0008E93A0008E93A0008E4
:10106000E93A0008E93A0008E93A00082D5F00086B
:10107000E93A0008E93A0008515F0008755F000886
:10108000E93A0008E93A0008E93A0008E93A0008B4
:10109000E93A0008E93A0008E93A0008E93A0008A4
:1010A000E93A00083D600008E93A0008E93A00081A
:1010B000E93A00080000000000000000E93A0008DA
:1010C000E93A0008E93A0008E93A0008E93A000874
:1010D000E93A0008E93A0008E93A0008E93A000864
:1010E00071600008E93A00080000000000000000FC
:1010F00000000000000000000000000000000000F0
:1011000000000000E93A000800000000E93A000889
:10111000000000000000000025600008E93A000817
:10112000E93A0008E93A0008E93A0008E93A000813
:10113000E93A000800000000000000000000000084
:1011400059600008E93A0008E93A00080000000088
:10115000E93A0008E93A0008E93A0008E93A0008E3
:10116000E93A0008E93A0008E93A000800000000FE
:10117000E93A0008E93A0008000000000000000019
:0C118000E93A0008E93A0008E93A0008E2
:10118C00F1EE103A43F08073E1EE103A704700BF75
:10119C0010B5054C237833B9044B13B10448AFF3A5
:1011AC0000800123237010BD6408002000000000A3
:1011BC004461000808B5034B1BB103490348AFF366
:1011CC00008008BD00000000680800204461000891
:1011DC00A449A5480B68CA6F00882DE9F04FD21AB4
:1011EC0092B2A24C5509904283B02280658061D2A4
:1011FC009F48008890425DD99E480022028004F1ED
:10120C004006204601E051F8083F4A68D21A92B2D3
:10121C0095422CBF0022012240F8042F8642F2D1C5
:10122C00A56BA368D4F818A0D4F804E06169A26A8D
:10123C00D4F824B02069D4F820800193AE00E5697D
:10124C000095656BE768D4F82CC083EA0A0946EA76
:10125C00C50689EA02098EEA010585EA0B054FEA03
:10126C00890949EAC509256C236B354380EA0806D0
:10127C005E4049EA0609E66B7F4B45EA4605EEB24D
:10128C00009D7D4085EA0C0549EA450593F80090E0
:10129C00EDB2B9F1000F10D0DFF8009299F8009080
:1012AC00B9F1000F0FD1AE4211D0B4F85030013368
:1012BC00A4F8503003B0BDE8F08FDFF8E09199F856
:1012CC000030002B60D0C6F10F06F6B2EBE7694B8D
:1012DC00B4F8465000261E80019B5B0243EA8E2325
:1012EC0043EA0C0343EA072343EAC013013543EAFC
:1012FC0081130099A4F8465043EA4A13256B43EA3C
:10130C000113012D43EAC80308BF5C4E43EA8B036B
:10131C0043EA420208BF35702F2A1BDD94F848308F
:10132C00002B5BD1564D2A78002AC3D0554B1B7825
:10133C00002BBFD1504B1B78002BBBD094F84B30FB
:10134C00934253D0042A84F84B205AD9012384F8B1
:10135C004930AFE7531E2E2B0FD9002AE2D194F857
:10136C004A304949012B08BF84F84820444A0023DD
:10137C000B80137084F849309CE7434B404D00219F
:10138C00D2B219802A70D1E703F036FAC0B194F8C2
:10139C0044300133DBB2642B84F8443010D9012380
:1013AC0089F80030D4E901E30193E3690093D4E9AF
:1013BC000370D4E9051AD4E9088BD4E90A2C82E726
:1013CC00D4E901E30193E3690093D4E90370D4E910
:1013DC00051AD4E9088BD4E90A2C5FE72A48284976
:1013EC00028000230B7084F8493063E7042A08D983
:1013FC0094F849300133DBB2052B84F849307FF681
:10140C0059AF0023013A84F84930142A0FD8DFE889
:10141C0002F00B7F7B77730E6C65615D0E55472078
:10142C000E0E0E0E0E191400184B01221A70184ACB
:10143C002978117000232B703CE7164A164B527C0E
:10144C001A70F4E7134B144A5B7CC3F1010313705D
:10145C00EDE7002240F6FF6384F84C20A4F84E30F0
:10146C00E5E700BF5407002040070020D803002008
:10147C00C4030020D8060020AC060020D2060020B1
:10148C00FE0600209706002098060020B2060020D9
:10149C00FF060020D00400202B000020E9060020CD
:1014AC0094F84A3001214FF460628B4284F84C105E
:1014BC00A4F84E20BBD184F84830B8E700F07EFA8F
:1014CC00154B164A5B7C01331370B0E7124B0122AB
:1014DC009A74ACE7104B00229A74A8E70E49104B93
:1014EC000120002248741A70A1E70B490C4B002014
:1014FC00012248741A709AE7084B05221A7096E775
:10150C00064B04221A7092E7044B03221A708EE7E2
:10151C00024B02221A708AE7D0040020B206002087
:10152C002B00002030B52F4DB5F84E30002B3FD09E
:10153C0000221846A5F84E201A0A82EA13125340CC
:10154C00DB4303F00F0343EA0013274AAB6503F0B8
:10155C000F001913145C515C244844EAC134C3F3E2
:10156C000321C3F30313515CD35C214A92F800E0CE
:10157C0044EA812444EA431405EB8E03802200EBF9
:10158C008E00EC655A66043013214FF0010C0CFAF6
:10159C0001F32340CB4083EAD2120139D2014B1C18
:1015AC0040F8042FF3D105EB8E0500232B6630BDDC
:1015BC00104B1B785BB103460F2240FA02F1012954
:1015CC0008D0013A082AF8D100226A65B4E74FF630
:1015DC00FF70F0E7083A40FA02F343EA42206A65EA
:1015EC0083B2A9E7D80300205C610008380400200E
:1015FC00540800209706002030B5039C84460AE06E
:10160C008C4513DD9C420FD0B1EB6E0F0DD0AC4569
:10161C000EDC04462A4602EB010EE01894454FEA14
:10162C006E054FEA6000EBDB204630BD184630BD3E
:10163C00691C0346EFE700BF431A48BF0B1A184654
:10164C00704700BF04494A6A80B292B24B6A9B1A37
:10165C009BB28342FAD370470014004000F1FF3C68
:10166C0058B106494A6A92B24B6A9B1A9BB2B3F5BF
:10167C007A7FF9D3BCF1010CF4D27047001400400E
:10168C00BFF34F8F0549064BCA6802F4E06213435F
:10169C00CB60BFF34F8F00BFFDE700BF00ED00E054
:1016AC000400FA058A1A03698168026010B4046A9E
:1016BC0001FB0231A1420161C4BF214604616442B5
:1016CC008C428369C4BF04612146C468D31A04FBED
:1016DC0003F34468436104FB0233446A0B44A342A2
:1016EC00C0E90623C4BF2346C46164429C42C8BF00
:1016FC00234607EE903AC8BFC461B8EEE70A5DF81E
:10170C00044B704730B5A64CA64D83B02968C02257
:10171C00204603F06DF9E37D217E032B84BF022369
:10172C00E375A1F10803282B3BD8A1F11803182B62
:10173C0040F2F380A1F10C030B2B40F2FF80A1F1DE
:10174C000803032B40F20B81A888974BD862637E69
:10175C00A3F13202642A2ED8227D002A40F0D380D5
:10176C005A0802F10A015B002B816A81A981A37ED0
:10177C0003EB8303DB0014330220EB8101F0AAFF9F
:10178C006378EBB9E8894FF4FA73009340F6B832FA
:10179C004FF47A734FF49671FFF72EFFE88403B081
:1017AC0030BD814A40F60453EB80D362637EA3F1D3
:1017BC003202642AD0D9962255232A816B81D6E72E
:1017CC00A07F0B2888BF052001F084FF94F82130FE
:1017DC0094F8202094F8221094F82300A87503F2B2
:1017EC006B335B006B8294F82430A3F10103B3FAE2
:1017FC0083F35B0984F8C03094F82830053B142B34
:10180C0084BF052384F8283094F8293002F277122B
:10181C00013B092B4FEA420288BF0A232A8294F823
:10182C00252088BF84F8293094F82A30FA3201F246
:10183C005E512A835A1EA982082A4FF0000184F8AF
:10184C00271047D90A2384F82A3094F82B30463BCA
:10185C00462B84BFFF2384F82B3094F82C30013BAB
:10186C00622B9CBF012384F8C13094F82D30013BCE
:10187C00092B84BF052384F82D3094F82E30092BC6
:10188C0006D8042B0CD8DFE803F00384800B770018
:10189C00464A0023012184F8C23084F8C330117009
:1018AC00E889434AE47EB0F5967F3CBF002385F877
:1018BC002030404BA2FB0012A3FB00135209202145
:1018CC00DB08B1FBF4F1B2FBF1F2B3FBF1F36A8488
:1018DC00AB8458E7C3EB4312C3EB82035B002A894A
:1018EC0031493D3BDBB21A442A816A89AB761A44F2
:1018FC006A81AA8B1A44AA83EA8B1A44EA834A6C3B
:10190C0013434B64A1E72B4A2B81A2FB03235B08F7
:10191C0003F10A026B81AA8129E740F2826308462F
:10192C000093182140F604533022FFF765FE217E08
:10193C00A880A1F10C030B2B3FF601AF40F604532A
:10194C00084600930C2141F608231822FFF754FE99
:10195C00217EA880A1F10803032B3FF6F5AE41F2DE
:10196C0086330093084642F20C7310220721FFF7CE
:10197C0043FE80B2A880E8E60F490C4A01230B70A5
:10198C000021117084F8C2308AE7012384F8C33037
:10199C0086E7064A012384F8C230137080E700BF43
:1019AC00D004002000000020002C01402004002066
:1019BC001F85EB51ABAAAAAA22040020044B0548B0
:1019CC0093F828C01A6880F801C0C02102F0AEBF9D
:1019DC0000000020D004002000B5124A92F8C81074
:1019EC00B2F89431D2F8C40002EB410C0131C9B207
:1019FC006329BCF8CCE0ACF8CC30184484BF00238D
:101A0C0082F8C830084B98BF82F8C810A0EB0E00C3
:101A1C00C2F8C400A3FB0030C0F34F10A2F896012B
:101A2C005DF804FBD00400201F85EB5108B502F0D3
:101A3C0007FF0E4B93F829203AB140B90C4A92F8A3
:101A4C009831013382F8983108BD0028F6D1084A44
:101A5C0093F82A1092F899310133DBB2994282F84B
:101A6C009931F1D2002382F8983108BD0000002092
:101A7C00D004002038B5334D95F82B30012B51D0C4
:101A8C0095F82C30304C5A1E12F0FF0238D085F8E5
:101A9C002C2003F0010385F8293072B694F89B31A1
:101AAC00002B3AD062B602F0E7FED4F89C21296BE9
:101ABC0040F6C4139A4284BF012385F82D3095F863
:101ACC002C3004EB43030022A3F8A211B4F8A601B6
:101ADC00B4F8A431B4F8A81184F898210344B4F8EC
:101AEC00AA0184F8A0210B44B4F8AC1103440B44B4
:101AFC00B4F8AE110B4404335B10C4F8B03138BDEC
:101B0C000123062285F82C2084F89A3185F8293097
:101B1C0072B694F89B31002BC4D195F82C0003F0CD
:101B2C00D1FFBFE795F82C20074C0132D2B2062A20
:101B3C0099BF85F82C2002F0010385F82C3084F82D
:101B4C009A31A8E700000020D00400201C4AD3687A
:101B5C0023F0010310B51B4CD360FFF78BFF1A4920
:101B6C00B4F8B601B4F8B4210B6B024403EB520386
:101B7C0094F82F2058080863C2B991F8342018093A
:101B8C0012FB00F292B291F82D10A4F8BA21C2EB1C
:101B9C009303A4F8BC3181B1D4F8C03142F20F7276
:101BAC0093429CBF0133C4F8C03110BD94F8B821E6
:101BBC0000FB02F2C2F38F12E5E702F055FEEBE7F1
:101BCC0000440140D00400200000002070B5284ED5
:101BDC00D6F89C317D2B16D94FF080435B6A7C2B59
:101BEC0009D8B6F8C431B3F5167F04D2D6F8C03193
:101BFC00B3F5FA7F19D396F8C6310133DBB2642BF7
:101C0C0086F8C6312DD81B4D95F83530002423B9F4
:101C1C000CE095F83530A34208DD02F011FE95F882
:101C2C002930834204F10104F3D170BD72B602F085
:101C3C000FFE4FF08040B6F8BC11426A0E4BB6F85E
:101C4C00B641A6F8B62101310022A6F8B441426291
:101C5C005A62D9621A61DA6842F00102DA6062B63D
:101C6C0070BD02F0F5FD0023C6F8C03170BD00BF99
:101C7C00D00400200000002000440140F0B5AD4C21
:101C8C00A37C83B0002B66D094F8C230002B00F0FC
:101C9C00A580A94DB4F8C821B2F5836F80F0A98155
:101CAC00A2F130039BB2B3F57A7F10D2617C95F828
:101CBC002B60C1F10100864200F0468395F8361086
:101CCC005B009BB2C1F12F010B44A4F8CA312F2A3F
:101CDC0046D8002394F8CF21A4F8CA3184F8CE3129
:101CEC0095F837309A4241D8E67C002E51D0B4F8A2
:101CFC00CA311D2B00F2DA800022A4F8D02194F80E
:101D0C00282002EB8202B3EB820F4FEA820180F2B1
:101D1C00D98094F8CD31002B39D194F8DC31002BDB
:101D2C0035D0E27CB4F8D00150232E2113FB0213E2
:101D3C008342C0F2078194F8E231002B00F0C58198
:101D4C00013B042B00F2BE81DFE813F0BA01F9026B
:101D5C00F602F302BA01B4F8C831774DA4F8CA31CF
:101D6C0094F8CF2195F837309A42BDD9A37D002B3A
:101D7C00BAD003F0E9FD02F06BFD662384F8CF3195
:101D8C0094F8CD310022A4F8D021002BC5D003B09B
:101D9C00F0BD94F8D231002B00F0838094F8D3314D
:101DAC00002B40F03B81D4ED767A9FED647AF4EE13
:101DBC00C77AF1EE10FA00F3B281BCEEE77A17EEB7
:101DCC00103AA4F8D0319FED5E7AF4EEC77AF1EEBA
:101DDC0010FA9ED53023A4F8D0319AE794F8262037
:101DEC00554D002A78D0AE7DB4F8C8C1760006F502
:101DFC007A718C451CDD607C95F82B20824200F0BA
:101E0C00788294F89B31002B40F05481002384F8A5
:101E1C00CC3140F2FF73604600934FF4FA622F23EB
:101E2C00FFF7EAFBAE7DB4F8C8C1A4F8CA0176008E
:101E3C00C6F57A72624521DD637C95F82B00C3F1FF
:101E4C000101884200F0658294F89B31002B40F030
:101E5C0031812F2300216046009340F2FF7384F8F8
:101E6C00CC11FFF7C9FBAE7DB4F8C8C1A4F8CA0108
:101E7C007600C6F57A739C45C0F21C8106F57A761D
:101E8C00B44500F3178194F89B210023A4F8CA31C0
:101E9C00002A00F00F81012284F89B3184F8CC21B8
:101EAC0008E1B4F8CA31A4F8D03132E71E2B3FF464
:101EBC0026AF94F8282002EB82029200934211463E
:101ECC00C0F2CC8040F2FF7218460092A023FFF7BC
:101EDC0093FBA4F8D0011CE7AA7DB4F8C8615200AA
:101EEC0002F57A718E4240F3C580637C95F82B2005
:101EFC009A4200F0DF8140F2FF73304600934FF4BA
:101F0C00FA622F23FFF778FBAB7DB4F8C861A4F815
:101F1C00CA015B00C3F57A72B24200F3B08003F5DC
:101F2C007A73B342C0F2C6800023A4F8CA3184F895
:101F3C00CE31BFE0D00400200000002000E0FF44C0
:101F4C000000404294F8C731002B00F02781002A92
:101F5C0000F018816B894FF4FA620092283340F23A
:101F6C00FF728921FFF748FBA4F8E00194F82620C2
:101F7C00002A40F0F780E07CB4F8D03184F89B2143
:101F8C0050212E2211FB002293427FF7D4AE2E2B30
:101F9C0007D9617F1E220A41D4F8C0118A4200F28F
:101FAC005D81B4F8E021B5F86A10914294F8C12033
:101FBC0038BFA4F8E0113AB1B5F96C20B4F8E011CF
:101FCC009142C8BFA4F8E021D4ED7B7AF5EEC07A3B
:101FDC00F1EE10FA7FF7DBAE2F2B7FF6D8AEFCEECE
:101FEC00E77AB4F8E03117EE902A1A44A4F8E0210D
:101FFC00CDE6637C95F82B10994200F0BE8195F8E4
:10200C003600A2F58361490089B2C0F12F00A2F11C
:10201C00300301449BB2A4F8CA1144E6D5E90E3250
:10202C00B4F8CA0100922F2140F2FF72FFF7E4FAD4
:10203C00B4F8CA21C34B93FBF0F0E37E2E2A4FEA8F
:10204C00530390FBF3F3A4F8D4313FF6ACAE00236A
:10205C00A4F8D0612E64C4F8D8315AE6A0211846F1
:10206C0000912F231E21FFF7C7FAB4F8CA31A4F848
:10207C00D00144E6C2F57A729642BFF655AF637C46
:10208C0095F82B00C3F10101884200F0F6802F2354
:10209C0030460093002140F2FF73FFF7ADFAAB7DA1
:1020AC00B4F8C861A4F8CA015B00C3F57A72964211
:1020BC00BFF635AF94F8C230002B3FF451AEE9E5D2
:1020CC0001F048FC002384F8E231237D63BB94F8D3
:1020DC00C721A4F8E031002A00F0AC8094F8263037
:1020EC00002B49D094F89B31B3B1B4F8C8114FF41C
:1020FC007A70FFF7A1FAAA8800F57A7083B2013AD8
:10210C009342A4F8E431C0F27F8103F015FD94F8FA
:10211C009B61002E7FF43BAEB4F8D03137E740F230
:10212C00FF73A4F8D0314EE694F8C731002B48D198
:10213C00227FC4F8C031012685F82D6084F89931CE
:10214C00002A3CD0E07C00283CD194F8293003F2E2
:10215C00DE335B00A4F8E43103F096F8E07C84F8FD
:10216C009B6131E0E17C2E22502313FB0123B4F858
:10217C00D0219342BFF6DFAD94F89B61002E7FF423
:10218C0006AEC9E74FF4FA6200926B8940F2FF7217
:10219C002F21FFF731FAA4F8E001E7E603F0D4FBB6
:1021AC0095F82D30002B00F023812B89E27CB4F8BC
:1021BC00D001A4F8DE31012184F8C711C7E603F081
:1021CC00C3FBE07C94F89B6195F82C30013BC3EB8E
:1021DC000312B5F8683003EB82031AB2B2F5B47F80
:1021EC009BB2A6BFA3F5B4739BB2A4F8E62103F18E
:1021FC00770212B2A8BFA4F8E631B2F5B47FA8BF3B
:10220C00A3F1F102A4F8E82103F1EF0212B2B2F546
:10221C00B47FA6BF793BA4F8EA31A4F8EA210023E5
:10222C00012808BF84F8CD01A4F8E031002E7FF41A
:10223C00AEAD71E7237FC4F8C021012185F82D10C4
:10224C00002B40F0DB8094F89B31002B00F0D98000
:10225C0094F82630002B7FF448AF98E5B4F8E021D1
:10226C0029898A423CBFA4F8E0110A46E98B9142C5
:10227C003CBFA4F8E0110A4695E6E88C296B88422D
:10228C0080F0A280B4F8C411C72900F29D8001220D
:10229C00002785F82D20C4F8C07185F82B3002F08A
:1022AC00D7FAAA7DB4F8C86184F8CE715200C2F591
:1022BC007A72ECE6E88C2A6B904280F08F80B4F84E
:1022CC00C421C72A00F28A80C3F10103002701222E
:1022DC0085F82B30C4F8C07185F82D2002F0B8FABF
:1022EC00A97DB4F8C86184F8CE71490001F57A7102
:1022FC0001E694F8CC01A4F8CA31012684F89B615C
:10230C0000283FF4D7AEB21A84F89B3185F82B2005
:10231C007CE594F8CC0100210126A4F8CA1184F8BC
:10232C009B6100283FF4C6AE85F82B3084F89B11D6
:10233C008FE501F0A1FAC5E601F06CFBC2E601F0F5
:10234C0039FBBFE600879303EA8C2B6B9A422DD2A4
:10235C00B4F8C431C72B29D80123002685F82D30B9
:10236C00C4F8C06185F82B1002F072FAB4F8C821D9
:10237C0084F8CE61A2F13003A0E4E98C2A6B91427F
:10238C001BD2B4F8C421C72A17D80122C3F1010308
:10239C00002685F82D2085F82B30C4F8C06102F09A
:1023AC0057FAB4F8C82184F8CE6128E694F8CD31F8
:1023BC00002BD1D1A4F8C8318BE494F8CD21002A9C
:1023CC00E3D1A4F8C82184E494F8CD1100297FF45A
:1023DC005EAF4FF47A76A4F8C86158E694F8CD2134
:1023EC00002A7FF471AF4FF47A76A4F8C86182E5C5
:1023FC0094F8C7315BB102F037FAD6E603F09CFBD8
:10240C006CE603F0A1FA69E602F03EFFB4E6FFF7D2
:10241C0031FB4FF0804342F2107141F28832296354
:10242C005A62012384F8C731E5E700BF10B50E4CA2
:10243C0094F8F031012B0DD0022B03D0BDE81040E5
:10244C00FFF71CBCB4F8B001FFF76CF8002384F85C
:10245C00F03110BDFEF7BCFE002384F8F031BDE86E
:10246C001040FFF70BBC00BFD0040020F8B54F4E56
:10247C004F4F96F82B10002977D1B7F8E63101337E
:10248C001AB2B7F8E8310133B2F5B47F1BB2B2BF60
:10249C00A7F8E621A7F8E6110A46B3F5B47FA8BF62
:1024AC000023A7F8E831B7F8EA3101331BB2B3F5D2
:1024BC00B47F77DAA7F8EA3106EB4202B6F840139C
:1024CC00B2F97030B0883B4D3B4C0B4400FB03F32E
:1024DC0085FB0312D81797F82D30C0EBE21003FBE5
:1024EC0000F0C31784FB0020C3EBA00080B202F005
:1024FC00F7FDB7F9E831B6F8400306EB4303B3F93F
:10250C00702097F82D300244B08800FB02F285FB56
:10251C000201D017C0EBE11003FB00F084FB002399
:10252C00C017C0EBA30080B202F0E0FDB7F9EA31AE
:10253C00B6F8400397F82D2006EB4303B3F970303F
:10254C000344B08800FB03F385FB0315D817C0EBDD
:10255C00E51002FB00F084FB0034C017C0EBA400B4
:10256C0080B2BDE8F84002F0C7BDB7F8E621B7F875
:10257C00E831013A12B2013B1BB2002AB8BF40F25B
:10258C006712002BB8BF40F26713A7F8E831B7F811
:10259C00EA31A7F8E621013B1BB2002BB8BF40F291
:1025AC00671387E70023A7F8EA3185E700000020CE
:1025BC00D0040020D34D62106766666638B5244D92
:1025CC00244C2A6B4FF0804102EB42024B6AA4F878
:1025DC00B63112FA83F200234B6253095B009BB2B3
:1025EC00A4F8BA31C3EBD2039BB29208D4F8C00161
:1025FC002A63A4F8BC3101E0042802D94A6A9A4241
:10260C00FAD3154AD362FFF735FAD4F8C031607F9C
:10261C0094F826100022013384F8982184F899212B
:10262C0050EA0102C4F8C03104D12B6BB3F5FA6F38
:10263C0006D338BD132BFCD92B6BB3F5FA6FF8D836
:10264C00002385F82D30BDE8384002F00DB900BFED
:10265C0000000020D004002000440140F8B5C24C1A
:10266C00B4F8F411B4F8F201B4F8F62194F8DC31B2
:10267C00B4F8E051A4F8C4510131A4F8F41194F861
:10268C00F811013001320B43A4F8F201A4F8F62141
:10269C003ED194F8F921002A3AD0B4F8CA51002D51
:1026AC0040F05B81B4F8FA3101339BB244F62061FF
:1026BC008B42A4F8FA312BD9B4F8FC311E2B40F222
:1026CC00B58194F8C030012184F8DC11002B00F0A6
:1026DC00B281B4F8FE11A5484B08A0FB0323DB091B
:1026EC00B1F5B97F84F8F8310DD3A14F4AF6AA267B
:1026FC0001F0FAF86420FEF7B1FF94F8F8313E606F
:10270C000135AB42F4DC94F8C3300BB984F82630B5
:10271C00E37F73B1974AB4F8003292F84223013345
:10272C009BB202EB8202B3EB820FA4F8003200F3EF
:10273C00968094F8CD31002B38D18E4D95F82D30F4
:10274C0023B194F8C731002B40F0ED80B4F8F6318A
:10275C00142B31D895F89C33002B40F08780B4F8BB
:10276C00C41194F8DC3123B194F8C731002B40F03C
:10277C00C98094F89B31E888002B00F09E80AB88D0
:10278C00B4F8E4215D1C7C4B00FB02F283FB023CA1
:10279C00D317A3EBEC132B449BB2A4F80632774A65
:1027AC00A4F8DE11D06253639363D363B4F8083298
:1027BC000133A4F80832F8BD94F8C1300022A4F813
:1027CC00F62123B194F8C731002B40F0EA80637FE7
:1027DC00002B7CD194F8D231002BBBD094F8C731AC
:1027EC00002BB7D0B4F8D421D4F8B0116448DFED85
:1027FC00656A9FED657AFEF755FFD4ED767AE0EECB
:10280C00267AF4EEC77AF1EE10FA40F3038184EDE8
:10281C00767AD4F8C031632B9CD895F89C3300227F
:10282C002A65002B9BD0B4F8DE3102210A4685F8CC
:10283C009D138C46B4F8C411C81A90422EDC581A59
:10284C00904240F3A780A3EB0C0399B2E27DA4F86D
:10285C00C411002385F89E3385F8342081E70122CA
:10286C00002384F80222A4F8003262E7D4F8C031C5
:10287C00952BB4F8DE31D8D9952BD6D9D4F89C2128
:10288C00B2F5FA7F8CBF062110210A4685F89D13FC
:10289C008C46B4F8C411C81A9042D0DD2A6B63443C
:1028AC0099B2B2F5FA7FA4F8C41159D9E37D85F831
:1028BC003430012285F89E2353E72F4A00FB01F3A5
:1028CC00A2FB0323C3F3CF13A4F8063267E794F8F3
:1028DC00C731002B3FF43EAFB5F87023296B2B4862
:1028EC00DFED286A9FED2A7AFEF7DCFED4ED7B7AC9
:1028FC00E0EE267AF4EEC77AF1EE10FA78DD84ED8C
:10290C007B7A67E7B4F8D0312F2B7FF632AFE888AB
:10291C00194A00FB01F3A2FB0323DB0901339BB231
:10292C00A4F806323BE701F093FFFFF77FF894F829
:10293C00A031002B7FF40AAF95F8293094F8982138
:10294C00002B61D095F843339A427FF6FFAE0123FA
:10295C0084F8A031FFF732FEF8E6A4F8FA31D7E696
:10296C00002385F89E33FCE6D0040020B9D31FB1B8
:10297C000030004000000020D34D6210002C0140BC
:10298C004000002017B7D13800E0FF44740300204A
:10299C0000001643E27D85F83420002385F89E3331
:1029AC00DFE694F82C20B4F90412244802EB8202DE
:1029BC0002EB8202D200FEF775FEDFED217AB5F84C
:1029CC006C20698920EE270AFDEEC07A17EE903A4A
:1029DC00D31A1BB21A468B42A5F86C30EB88BCBFDD
:1029EC000AB2A5F86C209342B8BFA5F86C30EEE69D
:1029FC00F5EEC07AF1EE10FA4FF000038CBFC4ED87
:102A0C007B7AC4F8EC31E5E695F844339A427FF6CC
:102A1C009DAE9CE7F5EEC07AF1EE10FA4FF0000394
:102A2C0054BFC4ED767AC4F8D831F2E684F8F95183
:102A3C00A4F8FA516CE600F057FF64E64803002056
:102A4C0017B7D1382DE9F04F2DED028B85B001F081
:102A5C00D1FF4FF47063BF4AD3F8E010914205D117
:102A6C00BD4AD3F8E410914200F09883BB4DBC4CA6
:102A7C0002F096FA02F056FBFEF744FEE378022BC6
:102A8C0000F0D6831122B74B22710221B64AE170B5
:102A9C0003F10C0013F8011B02F8011F9842F9D145
:102AAC00FEF78CFF637C227DA988E980013B18BF6F
:102ABC00012385F82B3002B9E27494F8263093B1D7
:102ACC00AA8969892B89323201204FF47A76323106
:102ADC003233AA810022AE83698185F8200060829E
:102AEC00A282A2752B8100F085FE0023A4F8FC3194
:102AFC0002F066F89D4B4AF6AA221A6001F0EEFD30
:102B0C0094F8D33113B1012384F8D23101F07AFE59
:102B1C00964F9FED978ADFF86C92DFF86C82DFF8A6
:102B2C006CA24AF6AA26D4F8C031042B94BF062313
:102B3C00032385F8433385F84433637D3E60002BD3
:102B4C0040F09D81B4F8083242F21072934209D9D8
:102B5C0094F8DC11002940F0F78249F64042934288
:102B6C0000F22883B4F8F22144F620639A4219D972
:102B7C00B4F90432D4ED837A7E4A07EE103AB8EEFB
:102B8C00C77A1178E7EE087A0229C4ED837A00F04F
:102B9C009182032900F08182012900F075820023C3
:102BAC00A4F8F231D4F8C021B2F57A7F40F2238137
:102BBC000021B4F8CA3184F8CF11C72B40F2068239
:102BCC00E17C11B19F2B40F2228194F81112002963
:102BDC0000F0B980B3F5C87FC0F02081D4F8B031D3
:102BEC0094F89A0188FB03C1A1EBE371C4F89C1122
:102BFC0010B10A2A00F2FB8194F81932002B7CD018
:102C0C002B6B3C2B79D95C4B1022002183F80F13D2
:102C1C0083F8192383F8402394F80232002B79D1DE
:102C2C0094F81C320133DBB2C82B84F81C3200F24E
:102C3C00548194F8CD214FF0000B84F8C6B1002AD2
:102C4C0040F0A68094F8C7314C4AD4F8B0114C48E7
:102C5C0092FBF1F213FB02F39BB2A0FB032095F85D
:102C6C002020A4F81A32C008A4F82A02002A40F046
:102C7C00ED8194F82B1094F810024FF4FA63814212
:102C8C00A5F86A30C0F0F381D4F8C031632B00F2A0
:102C9C0000812B6BB3F5FA7F40F2FB800C2385F897
:102CAC00353094F82F30002B40F00A814FF08042E1
:102CBC004AF6C873526A9A427FF635AF94F8C7B198
:102CCC00BBF1010F7FF42FAF94F8CF21013284F8C0
:102CDC00CF2101F0BDFDB4F8D03185F82DB02F2BEC
:102CEC0005D8002384F8C73141F288332B630023C5
:102CFC00C4F8C031FFF762FC15E71F4B002210210E
:102D0C0083F80F1383F8192383F8402394F80232C5
:102D1C00002B85D0D4ED837AB4F81AC2B4F804220F
:102D2C00B4F8FE1194F81002CDF800C0FCEEE77A6E
:102D3C0017EE903A9BB203F0AFF803F079F800234A
:102D4C0084F802326CE7952B94BF64230A2385F830
:102D5C00373043E7DAE32559D963B84E0000002039
:102D6C00D0040020B4610008D404002000300040DE
:102D7C00610B363B2404002000E100E0C027090071
:102D8C00CDCCCCCC1F85EB5156555555FD0FC0FF06
:102D9C00B4F8D021302A49D994F8DC11002945D057
:102DAC00313A572A00F2958194F82C22002A40F0EF
:102DBC001B82FFF75BFB94F81BE0B4F8D001782280
:102DCC00302141F6583340F22A3CB3FBFEF3BCFBF6
:102DDC00FEFCCDF800C0FEF70FFCA5F8A40380B2F2
:102DEC00FEF730FCB5F8A4234FF41673B3FBF2F3E3
:102DFC00A4F81A3297E6B4F8CA319BB9642A84F85D
:102E0C00CF3100F2E380E17C00293FF4DEAE94F890
:102E1C001112002084F8CF01002994D0002384F8EB
:102E2C00CF31DBE6642A7FF6CBAEC6E6237F4FF0CC
:102E3C00010B84F82CB2002B00F0D280AB8894F8F4
:102E4C002900A3F1130101EB4001E88889B2A4F831
:102E5C00C41100FB01F1B1FBF3F15B445B1AA4F864
:102E6C00063202F011FAC54BB4F80612596384F815
:102E7C009BB19963D9630023A4F81A3253E6AB884B
:102E8C000093286B5B08C8226021FEF7B5FBE88035
:102E9C0058E60C230093D4F89C0103234FF4FA72E8
:102EAC006421FEF7A9FB2B6B85F83500312B9CBFF9
:102EBC00022385F8353094F82F30002B3FF4F6AE12
:102ECC0017230093B4F8C4010D234FF4FA62642164
:102EDC00FEF792FB84F8B801E8E601F07DFAA84908
:102EEC00A84B8A68B3F8CA00B3F8A83022F00042A5
:102EFC0022F03F0242F0040298428A6000F0E58022
:102F0C00B4F81E12C21A40F6E44000FB01F19E48D0
:102F1C00A0FB0101C3EB9111642303FB01F191FBB5
:102F2C00F2F11E310BB2C9B2B4F82202A4F820326D
:102F3C0040F6E44B954B84F810120BFB00F0A3FB0E
:102F4C000023C01A03EB5003B5F8A003B4F8FE112C
:102F5C00DB0A00FB03F3A9FB0323C1EBC10101EB6B
:102F6C005313DB10A4F8FE31FEF736FD0BFB00F219
:102F7C00AAFB023242F30F32002ABCBF0023A4F892
:102F8C00043294F8C030C4F82402A8BFA4F8042278
:102F9C001BB394F8F831298BB4F8FE2101FB03F331
:102FAC009A4217DAB4F8283294F8CD2178480133D4
:102FBC0044F620619BB200FB02118B42A4F828322C
:102FCC0000F32581002384F81C3234E6002184F8B8
:102FDC00CF11F5E50023A4F8283294F8CD21F1E7C0
:102FEC00664A53639363D36302F0AEFC43E7D4F8B1
:102FFC001402FEF721FBD4F89C31B0EB530F1AD915
:10300C00B3F5FA6F17D294F81822013284F818220B
:10301C00A27C0021C4F8C0119AB9B4F8D0212F2A8F
:10302C000FD9002284F8C7212A895208A4F8DE217E
:10303C00012285F82D20002284F89A21C4F814323C
:10304C00DAE52A6BB2F57A7FEED9EAE7B5F8A22376
:10305C00AB8B0092698CAA8CFEF7CEFA94F82B10ED
:10306C00A5F86A0094F810028142BFF40DAEB5F8D1
:10307C00A233012200925B0801F10A020A39FEF721
:10308C00BBFAA5F86A00FFE594F81032414943F405
:10309C0000730B800223137081E5B4F8FE313D49B7
:1030AC00A9FB0303C3F3C70343F480630B80012321
:1030BC00137074E5DBB2A9FB03131B09354943F408
:1030CC00C0630B800323137069E5FF2147F6FF7380
:1030DC002AE7012284F82C22FFF7C8F9B4F8D02192
:1030EC00C82A04D95023A4F8E6B1A5F8A433B5F83E
:1030FC00A403FEF7A7FAB4F9E631002B7FF413AD65
:10310C004FF08041012284F8CD3184F89B3142F29A
:10311C0028332B63C4F89C31C4F8143285F82D2065
:10312C004B6284F8C721637F95F8A62385F82C2081
:10313C001422C4F8C02113B1AB89A4F8DE31FEF718
:10314C0099FC01F0DFFFEEE402F0FEFB0B4B0025D7
:10315C005D639D63DD6384F8DC51A4F8D05184F881
:10316C00F951A4F8FC5101F0D5FF0B484FF48072D3
:10317C00294602F0D9FFFEF783FA00BF002C01406C
:10318C00000004500075FF1FF119760501011000B5
:10319C007CFCFFFF260400205407002093F8EC3041
:1031AC002C4D2B2B52D0352B4DD01F2B04BF2A4B23
:1031BC002B605CE4039102F0C7FB284B039984F865
:1031CC00DC1159639963D963A4F8D01184F8F9110F
:1031DC00A4F8FC11039101F09DFF039920484FF4D2
:1031EC00807202F0A1FFC6E71E49CA6822F00102F4
:1031FC00CA6001F02DFB194AC2F834B0C2F838B0DD
:10320C00C2F83CB002F056FD84F82CB2D1E54FF078
:10321C00000BA4F8D0B102F097FB01F019FB94F865
:10322C00CD2184F8C7B1A4F8FCB184F8DCB1C9E6AF
:10323C002379112B7FF426AC627895F828309A42CA
:10324C00BFF430AC1EE4084B2B6010E4074B2B6032
:10325C000DE400BF00000020007C0008002C0140A1
:10326C00540700200044014000F8000800F8010851
:10327C00F0B5604CD4E90002101A6FF4487240F2B9
:10328C00765382189A4283B02AD85B4E5B4D00234A
:10329C0033802B78002B3CD06B780146ABB9AB78E4
:1032AC00002B00F08E80A888554F01333988AB7005
:1032BC00FEF7C2F9322866D900223B882A706A7858
:1032CC00AB804AB1D4E90031C91A40F2E1439942CA
:1032DC004DD9AB794B2B77D80023A868338004E009
:1032EC004649484B886800221A804749474A0B8850
:1032FC001268A0EB030C944503DD13440B8003B060
:10330C00F0BD1C1AA242BABF9B1A0B80088003B0F6
:10331C00F0BD3F4A947C74B13E4A128890421AD850
:10332C003D494FF47A7409880094FEF765F9A8605A
:10333C0000233380D9E7324B1A88374B198840F277
:10334C00FF7300932F23FEF757F93028CEBFA860E8
:10335C00AC602046ECE72A4B511C1A884FF4FA63F8
:10336C00009340F2E933FEF747F9A860E0E72A48FA
:10337C00AB790288C2EBC20201331144DBB2C9083B
:10338C00AB710180A6E73B886268C3EBC30123687D
:10339C00D31AAA780B44C3F3CF03322A3B808ED9BD
:1033AC00193B9BB23B80A3F2D663194A03EBD37350
:1033BC005B1082F8213001236B7000F0CBFA3B8854
:1033CC007DE780B2A8806FE7134A1149138819333F
:1033DC009BB21380A3F2EE2303EBD3735B10002498
:1033EC0081F820302C70FEF7E9FAAC7100F0E2FAAB
:1033FC0072E700BF54070020D806002028070020E1
:10340C0012000020CC06002098060020BC030020EF
:10341C00D00400201400002010000020194A9388CA
:10342C00591E022930B413D8174BD9683B290DD833
:10343C000021164C164D174819740123297023705E
:10344C0015490E240470202090710B7030BC70470D
:10345C00043B042BFAD80C49CB68632BF6D80C48E8
:10346C000C4C0A4D012303704FF0070C0A4884F8EA
:10347C0000C04FF0200C2B700B7482F806C0037048
:10348C0030BC7047BC0300202807002092050020A8
:10349C00C603002054080020C9060020F8B5284BAC
:1034AC00284F1968002544F6206E1A46A7F804E048
:1034BC0003F17804AC462E4652F8043F8B42A3EB42
:1034CC000100194606D070453CBF1FFA80FE01264C
:1034DC0084440125A242EFD10EB1A7F804E00DB14E
:1034EC004FEA5C15184C194A2378D560012B23D070
:1034FC00174D2B78012B15D02278134311D1FFF7E0
:10350C008DFFBB88C93B44F656529BB2934208D8F8
:10351C0001231049104A2B704F2008700221B971F9
:10352C001370F8BDBA88C93A44F6565192B28A4221
:10353C00F7D80849084AEFE7FFF770FFD8E700BF54
:10354C0054070020BC03002092050020280700200F
:10355C0093050020C6030020C906002070B5504C0E
:10356C00237813B14F4B1B7833B94F4B1B78002B7F
:10357C004FD0012B0AD070BD4C4B1B78002B35D093
:10358C0001F0ACF84A4B02221A7070BD454B1B7807
:10359C00002B31D1474D2B78012B6FD0464B1B782C
:1035AC00012B62D02378002BE5D12B78002B3AD05D
:1035BC004249434B4A7C072A36D81888052833D908
:1035CC00404C4D69E06F24680132D2B22844001B94
:1035DC00082A4A74486127D1C0F3CF023A4CC0F391
:1035EC00CF101518101A258108831DE001F0BCF8C6
:1035FC002F4B01221A7070BD2C4B1B787BB1334BB7
:10360C001888FDF78FFFFDF7E3FDBDE8704001F072
:10361C0065B8FFF743FFBDE8704001F05FB8BDE847
:10362C00704001F0A1B8264B294C208830B9234AB0
:10363C00127842BB1A8801321A8070BD40F2DC52FB
:10364C00002690421E8096D91C4D698BFDF7F4FF25
:10365C0032281ED82B7F0133DBB2322B2B7701D9CA
:10366C006E7896B123886B8370BD01F0C5F8164B4C
:10367C0088B103229A7101F031F893E7FDF7A8FDA8
:10368C0001F02CF88AE7188070BD00F0C3F9012313
:10369C002B702E77E6E702229A71FFF7E9FDEAE735
:1036AC00AC060020E9060020C906002050070020C7
:1036BC00C00600209205002093050020280700205A
:1036CC00CC06002054070020BC03002080060020FC
:1036DC009A0600200B28034B28BF0B2040001870C3
:1036EC00704700BF450700202DE9F84F0320374CE9
:1036FC00374FDFF8E89002F0E5F9002304F17C087D
:10370C001A4619E094F835603249DFF8E4B0C2EBA0
:10371C00C2104FF0F70A4FF47A630CEB400080B202
:10372C001AFB063A3EBB4E638E63CE63FDF796FFE3
:10373C003246023444450FD094F834C000254AF682
:10374C00AA23BCF1FF0FC9F800303D80DAD1023456
:10375C0001324445D2B2EFD102F0F6F81E481D4AB0
:10376C0000881E4900239362D0624AF6AA223B804D
:10377C000A60BDE8F88F0A23FE208B6210FB02CC96
:10378C00174E184AB2FBFAFAB6FBFAF6CE629BF861
:10379C0000301548B0FBFAF002F19C4206FB03F333
:1037AC0002F59B2202F26B629B08A2FB03230F4AD9
:1037BC0000FB0CF01B0AA2FB00204B63C0F34F1064
:1037CC008B63CB63FDF74AFF2A46B2E7D004002097
:1037DC00D8060020002C01400400002000300040DE
:1037EC0000127A00C0D8A700A08601001F85EB51FB
:1037FC004507002010B572B61A4B93F83030FF2BEA
:10380C0007D0FFF771FF184A184B1288DA6262B6BC
:10381C0010BD164C164B40F60452E2621B786363E3
:10382C000320A363E36302F04DF93723A362C8209E
:10383C00FDF714FF052002F045F92823A362C820E8
:10384C00FDF70CFF062002F03DF91923A362C820F6
:10385C00FDF704FF02F078F8064A0023A3621380F8
:10386C00D1E700BFD004002004000020002C014050
:10387C0045070020D806002070B5164C40F60453BE
:10388C00E36272B6144D154B3C224AF6AA262E6002
:10389C00A2621B7863630120A363E36302F012F955
:1038AC004B20FDF7DBFE5023A3624B20FDF7D6FE29
:1038BC005A23A3624B202E60FDF7D0FE02F044F891
:1038CC00074A084912880023A3620B80E26262B6A1
:1038DC0070BD00BF002C01400030004045070020A7
:1038EC0004000020D806002010B572B6144C154AFE
:1038FC00154B4AF6AA2140F60450E06211605022A2
:10390C00A2621B7863630320A363E36302F0DAF81B
:10391C006420FDF7A3FE4623A3626420FDF79EFE00
:10392C002823A3626420FDF799FE02F00DF8074AE4
:10393C00074912880023A3620B80E26262B610BDB5
:10394C00002C0140003000404507002004000020FE
:10395C00D806002010B5124C124B40F604513222FE
:10396C00E162A2621B7863630220A363E36302F04B
:10397C00A9F89620FDF772FE0B4A4AF6AA211E23DF
:10398C0011609620A362FDF769FE01F0DDFF074A86
:10399C00074912880023A3620B80E26210BD00BFAE
:1039AC00002C01404507002000300040040000209E
:1039BC00D806002010B5124C124B40F604512822A8
:1039CC00E162A2621B7863630220A363E36302F0EB
:1039DC0079F89620FDF742FE0B4A4AF6AA215023AD
:1039EC0011609620A362FDF739FE01F0ADFF074A86
:1039FC00074912880023A3620B80E26210BD00BF4E
:103A0C00002C01404507002000300040040000203D
:103A1C00D80600202DE9F041164D40F60453EB6218
:103A2C0072B6154BDFF860801B78144F6B637724EC
:103A3C00AB634AF6AA26EB63A7FB0430C0F307106E
:103A4C00C8F8006002F03EF863100A33AB620A203B
:103A5C00023CFDF703FE631CEED101F075FF084A32
:103A6C00084912880023AB620B80EA6262B6BDE89B
:103A7C00F08100BF002C014045070020CDCCCCCC00
:103A8C0004000020D806002000300040DFF834D0BD
:103A9C0002F0F6FA0C480D490D4A002302E0D45806
:103AAC00C4500433C4188C42F9D30A4A0A4C00237C
:103ABC0001E013600432A242FBD302F003FBFEF7D9
:103ACC00C1FFFEE70000012000000020D803002009
:103ADC00D8610008D803002080080020FEE7000011
:103AEC000368002B13DB30B4D1E900348A68CD684D
:103AFC00234313430A69046849692B431343054A5A
:103B0C000B4322401343036030BC0020704701205C
:103B1C00704700BF037E20F92DE9F04F0D6895FA30
:103B2C00A5F2B2FA82F235FA02F300F0A2804FF05D
:103B3C00010C4FF0030EEF431FE0D0F8008093FA16
:103B4C00A3F9B9F1000F07D0B9FA89F94FEA49097D
:103B5C000EFA09F928EA090893FAA3F3002B00F0EE
:103B6C008B80B3FA83F35B0004FA03F343EA080394
:103B7C000360013235FA02F37BD00CFA02F32B40CE
:103B8C00F7D04C6804F1FF38B8F1010F45D9D1F8E2
:103B9C001090D0F80CA093FAA3F8B8F1000F07D04E
:103BAC00B8FA88F84FEA48080EFA08F82AEA080A20
:103BBC0093FAA3F8B8F1000F60D0B8FA88F84FEA7E
:103BCC00480809FA08F848EA0A0A022CC0F80CA0BE
:103BDC00B3D1FF2BD1F8149053D8D0F820A093FA7E
:103BEC00A3F8B8F1000F08D0B8FA88F84FEA8808A3
:103BFC000F2606FA08F82AEA080A93FAA3F8B8F18D
:103C0C00000F63D0B8FA88F84FEA880809FA08F868
:103C1C0048EA0A0AC0F820A08FE7D1F80890D0F83B
:103C2C0008A093FAA3F8B8F1000F07D0B8FA88F8F7
:103C3C004FEA48080EFA08F82AEA080A93FAA3F899
:103C4C00B8F1000F3FD0B8FA88F84FEA480809FAE3
:103C5C0008F848EA0A0AC0F808A0D0F80480CE6830
:103C6C0007EA080806FB05F948EA0908C0F80480C9
:103C7C008DE70020BDE8F08F402375E74FF040083A
:103C8C009FE7D0F824A04FEA132898FAA8FBBBF1C1
:103C9C00000F08D0BBFA8BFB4FEA8B0B0F2606FAF2
:103CAC000BFB2AEA0B0A98FAA8F8B8F1000F10D00F
:103CBC00B8FA88F84FEA880809FA08F848EA0A0AB4
:103CCC00C0F824A039E74FF04008C0E74FF0800857
:103CDC009CE74FF08008EFE73B4B9B6803F00C032D
:103CEC000C2B08D8DFE803F0070707073607070790
:103CFC00380707071400344A136813F008031FD160
:103D0C001168090733D51268304A52F823007047FE
:103D1C002D4AD36803F00303022B4AD0032B33D074
:103D2C00136813F008032AD01368180743D4D2F889
:103D3C0094301B0903F0F003244A52F8233024E09A
:103D4C0013681B070AD51368204AC3F3031352F8F0
:103D5C00230070471E4870471E487047D2F89430B5
:103D6C001A4A1B0903F0F00352F823007047D2F8EB
:103D7C009430164AC3F3032352F82300704711689A
:103D8C0009071CD51268D7E7124B0F4AD068D168C7
:103D9C00D268C2F34162C1F30621C0F302100132B2
:103DAC0052000130B3FBF0F001FB00F0B0FBF2F07D
:103DBC007047074BE9E71368C3F30313BCE7D2F86A
:103DCC009430C3F30323B7E7001002406C61000882
:103DDC000024F40000127A00032810B52ED00C2811
:103DEC0003D0302849D0002010BD4F4BD3F8883079
:103DFC0003F00C0343F44023A3F540230C2BF2D81F
:103E0C0001A252F823F000BFD53E0008F33D000894
:103E1C00F33D0008F33D0008A93E0008F33D0008FF
:103E2C00F33D0008F33D0008F53E0008F33D0008A3
:103E3C00F33D0008F33D0008053F00083A4C3B4AAF
:103E4C00D4F8883003F0030343F44033934234D066
:103E5C00B3F1031F29D0013A93421FD0FFF73CFF67
:103E6C00A268A368324C3349C2F30312C3F3C223D2
:103E7C00A25CCB5CD040D84010BD2B4C2E4AD4F861
:103E8C00883003F0300343F44013934215D009D823
:103E9C00B3F5401F39D0103A9342A4D1BDE810407D
:103EAC00FFF71ABFB3F1301F9DD1D4F8900010F07A
:103EBC00020018BF4FF4004010BD20681F4B10F4D7
:103ECC00806018BF184610BDFFF706FF164B184947
:103EDC009A689B68C2F30312C3F30223895C154AE8
:103EEC00D35CC840D84010BD0F4A144B106810F476
:103EFC00806018BF184610BD0B4BD3F8900010F023
:103F0C00020018BF4FF4004010BDFFF7E5FEA26899
:103F1C00A368074C0749C2F30312C3F30223A25C44
:103F2C00CB5CD040D84010BD001002400200030012
:103F3C00A46100089C610008200030000024F400FB
:103F4C001E4A0368904210B425D0B0F1804F14D0B3
:103F5C0002F5A05290422ED002F5806290422AD0F7
:103F6C008C680A880360C462826243695DF8044B02
:103F7C0043F001034361002070474C68CA6823F08A
:103F8C007003234323F44073134303608A680B8844
:103F9C00C2628362E9E74C68CA6823F0700323436A
:103FAC0023F44073134303608A680B88C2628362F4
:103FBC000B690363D9E7CA68F2E700BF002C014024
:103FCC00B1F5805F30B400F0F78032D8102900F0E2
:103FDC002581B1F5807F5DD1036A146923F4807368
:103FEC000362016A4568C36921F4007141EA042146
:103FFC0023F48033146823F073031C43536821F4B7
:10400C00807141EA0321A64B984200F0868003F5AB
:10401C00A053984200F0818003F5806398427CD0D5
:10402C00D26845600023C461C26330BC016218468B
:10403C007047B1F5803F00F08D80B1F5801F54D1F1
:10404C00016A146821F480110162016A436D23F046
:10405C00807323F4E04343EA0423146921F4001130
:10406C0041EA0451546821F4801141EA04518C4C0A
:10407C00A04267D004F5A054A04263D004F580643C
:10408C00A0425FD0D26843650023C26530BC016298
:10409C0018467047012928D1036A156923F00103DA
:1040AC000362016A4368846921F00201294324F404
:1040BC008034156824F073042C43556821F00101F9
:1040CC002943774DA84214D005F5A055A84210D02D
:1040DC0005F58065A8420CD0D2684360002384614A
:1040EC00426330BC0162184670470123184630BC4D
:1040FC007047556921F0080141EA8501956923F45F
:10410C0080732B43956821F0040141EA8501D56940
:10411C0023F4007343EA4503DEE7536921F400619D
:10412C0041EA8321936925F4805545EA0315936888
:10413C0021F4806141EA8321D36925F4005545EAD5
:10414C0043156DE74468956924F4802444EA85247A
:10415C00446097E7016A146821F480310162016AB6
:10416C00436D23F4803323F070032343146921F44B
:10417C00003141EA0441546821F4803141EA0441A0
:10418C00474CA04210D004F5A054A0420CD004F52A
:10419C008064A04208D04365836DD2688265002399
:1041AC00016230BC184670474468956924F4803429
:1041BC0044EA05244460EEE7036A146923F480534F
:1041CC000362016A4568C36921F4005141EA043174
:1041DC0023F08073146823F4E64343EA0424536801
:1041EC0021F4805141EA03312D4B984210D003F554
:1041FC00A05398420CD003F58063984208D0D26843
:10420C0045600023C461026430BC016218467047EB
:10421C00936925F4804545EA8315F0E7036A146930
:10422C0023F010030362016A4568836921F02001C1
:10423C0041EA041123F08073146823F4E64343EA43
:10424C000424536821F0100141EA0311144B9842E5
:10425C0010D003F5A05398420CD003F5806398421C
:10426C0008D0D268456000238461826330BC01624F
:10427C0018467047536921F0800141EA8311936914
:10428C0025F4806545EA8305936821F0400141EAF5
:10429C008311D36925F4006545EAC305E1E700BF46
:1042AC00002C014010B4D1E901340A7B224322F4E2
:1042BC0080620C681A4322F400622243CB890C6999
:1042CC0022F48052134323F400534A6A234323F409
:1042DC00804313430E4A4C6923F47023904243EA03
:1042EC00040304D043645DF8044B002070470A6A51
:1042FC008C6923F47003134323F08073CA6923433E
:10430C0023F00073134343645DF8044B00207047A3
:10431C00002C014038B50368DB0722D40446D1E9F0
:10432C0003024B680D4603431343AA6921681343E8
:10433C00224A0A40134323606368AA68696923F41C
:10434C00405313436360A3681D4A23F440730B432B
:10435C009442A36007D01B4B9C421CD01A4B9C422E
:10436C0015D0012038BD0320FFF736FD0028F8D00A
:10437C002B68002BF5D0AA69B2F5004F0FD000EBDB
:10438C005300B0FBF3F39BB2E360002038BD302048
:10439C00FFF722FDEAE70C20FFF71EFDE6E75A08BF
:1043AC004FF6F07102EB4000B0FBF3F303EA0102AD
:1043BC00C3F342031343E360002038BDF369FFEFFE
:1043CC00003801400044004000480040014B186098
:1043DC00704700BFD4030020064B0748B3F804C055
:1043EC000649074AA0F800C058881B88088013802B
:1043FC00704700BF48070020EE060020F2060020A0
:10440C00640600205C4AD16C41F00101D164D26C8D
:10441C0082B04FF0904002F001020192019A0268C2
:10442C00082393FAA3F33BB1B3FA83F35B000321A4
:10443C0001FA03F322EA0302082393FAA3F333B13C
:10444C00B3FA83F35B00032101FA03F31A434FF031
:10445C00904140230A600A6893FAA3F33BB1B3FA84
:10446C0083F35B00032101FA03F322EA03024023E6
:10447C0093FAA3F333B1B3FA83F35B00032101FA8C
:10448C0003F31A434FF090413B4B0A60DA6C3B4903
:10449C0042F40052DA64DB6C03F400530093009B8B
:1044AC008B68D9070CD4364A936823F47C1343F4F5
:1044BC0080339360936823F0E07343F400039360BC
:1044CC002E4B9A68D20710D59B6858070DD52B4BED
:1044DC009A68D10736D59A68520748D5274A536847
:1044EC0043F01003536002B07047244BDA6822F497
:1044FC007C62DA60DA6822F40052DA60DA6842F040
:10450C000302DA60DA6842F48052DA601A6B22F045
:10451C000F0242F002021A631A6B22F4F86242F4A0
:10452C0000721A631A6B22F4F83242F430421A63A6
:10453C001A6B22F4F80242F488021A630F4B9A6841
:10454C00D107C8D40D490F4A4B6923F0E06343F0FF
:10455C0080634B61536823F0380343F020035360AE
:10456C00536823F4600343F400035360B6E79B687D
:10457C001B07B3D4E6E700BF001002400000045054
:10458C00000304501400045010B483B00023284AD4
:10459C0001939368D90746D49368264C264823F098
:1045AC00204323F03F039360916821F0104121F0E8
:1045BC003F0141F0805191602368204A9B09A0FB88
:1045CC0003139B0903EB83039B00A2FB0323DB0870
:1045DC000193019B2BB1019B013B0193019B002B90
:1045EC00F9D1134A936823F0404323F03F0343F07F
:1045FC00004393609368002BFCDB80230193019BA9
:10460C002BB1019B013B0193019B002BF9D1084A73
:10461C00936823F0004323F03F0343F001039360BE
:10462C001368DB07FCD503B05DF8044B704700BF83
:10463C0000000450D4030020632D3E05CDCCCCCC1F
:10464C00224B102282B083F80B234FF400621A60C5
:10465C0002F1804202F502321D4B916C41F00101D6
:10466C009164926C02F001020192019A9A6822F410
:10467C00FF4222F0700242F4165242F020029A607D
:10468C00D3F8A8200F2022F00F0290FAA0F01148C6
:10469C001149C3F8A82018615961DA68120C120488
:1046AC0042F00302DA609A6842F002029A609A6859
:1046BC0042F004029A609A6842F008029A609A6882
:1046CC0042F001029A6002B0704700BF00E100E0C6
:1046DC000000024040000450480700201B491C4ABF
:1046EC001C4B10B4002401F8044B106C40F48030C7
:1046FC001064106C20F48030106441209861164ACC
:10470C000A201862107898624FF6FF72DA625869C4
:10471C00124A40F0010058615C621148114C51661C
:10472C0014660078D06540F68B119165DA685DF8F7
:10473C00044B42F40072DA601A6A42F001021A6207
:10474C001A6842F001021A60704700BF500700203F
:10475C000010024000400140C6030020000002404F
:10476C00C20300203440014010B41C4C1C4A0123ED
:10477C002370116C1B4B41F480311164116C21F4CA
:10478C00803111646020184A9861032119621178F4
:10479C0099627322DA62586994F80411134A144C22
:1047AC0040F001005861134854661731106640F60A
:1047BC009B10D1659065DA685DF8044B42F4007289
:1047CC00DA601A6A42F001021A625A6C42F4004230
:1047DC005A641A6842F001021A60704750070020B0
:1047EC000010024000400140380700200000024049
:1047FC0038040020344001404FF09043186900F019
:10480C00040070474FF090420423D26893FAA3F34C
:10481C003BB1B3FA83F35B00032101FA03F322EA01
:10482C000302042393FAA3F333B1B3FA83F35B00CB
:10483C00012101FA03F31A434FF09043DA607047F9
:10484C00024BD3F80402C0F38070704700000140A3
:10485C00044B1A684FF4800122F480021A605961EB
:10486C00704700BF00040140024A136843F4800300
:10487C001360704700040140284A1378012B3ED086
:10488C00042B3CD0022B2DD0052B2BD0032B0ED080
:10489C00062B0CD0224B1B78D3B1224B9A6822F4F6
:1048AC0080029A60DA6842F48002DA6070471E4A2D
:1048BC00D2F8043223F0D86323F4F87343F0C063C6
:1048CC0043F07003C2F80432154B1B78002BE4D173
:1048DC00144B9A6842F480029A60DA6822F48002DF
:1048EC00DA6070471049D1F8043223F0D86323F40E
:1048FC00F87343F07003C1F804321378C6E70A4921
:10490C00D1F8043223F0D86323F4F87343F08063B6
:10491C0043F07003C1F804321378B3E72C00002085
:10492C0029000020000401400000014042EA01037C
:10493C005B0757D130B52C4C2369002943F4434312
:10494C00B8BF033143F0FA0383B0891023612369A4
:10495C00DD03FCD46369002B04DA244B1D68A560CD
:10496C005B68A360C2F30A0373B91F4C0223636133
:10497C006369D50A43EAC5036361636943F4803311
:10498C0063612369DB03FCD429B34B1E02F10804D9
:10499C0094465B08144A04EBC304A0EB0C0E0125EF
:1049AC000EEB0C035EF80C0059686B4603C35561A3
:1049BC00DDE90013CCF80010CCF80430136913F4C3
:1049CC008033FBD111690CF1080C41F00101A445B5
:1049DC0011615361E4D1044A536943F000435361BC
:1049EC0003B030BD704700BF00200240C803002058
:1049FC0001F08CBB62B670472C4A136823F0070396
:104A0C0043F004031360136803F00703042BFAD17B
:104A1C00274A136823F4C06343F40073136053698B
:104A2C005905FCD4234B1A6842F001021A601A682B
:104A3C009207FCD51968204A1E4841F008011960FC
:104A4C00196821F0F00141F060011960596821F4F6
:104A5C007F415960D9680A4042F4205242F0010269
:104A6C00DA60DA6842F08072DA601A6842F08072BA
:104A7C001A6003689B01FCD583680E4A43F003035C
:104A8C008360936803F00C030C2BFAD193680B48EA
:104A9C0023F0F0039360936823F4E06393609368CE
:104AAC0023F460539360FFF791BC00BF00200240D9
:104ABC0000700040001002408C80FFF900B4C40468
:104ACC0030B5002491B0CDE90444CDE90644CDE9DC
:104ADC000844CDE90C44CDE90E44314B3148DA6C35
:104AEC0042F00202DA64DA6C02F002020392039AD8
:104AFC00DA6C42F00102DA64DB6C03F0010302931E
:104B0C0003250AA990230A930B95029BFFF704F83F
:104B1C0010230AA94FF090400A930B950E94FEF7C0
:104B2C00FBFF20230AA94FF090400A930B950E949B
:104B3C00FEF7F2FF702304A91B48CDE90634CDE93A
:104B4C000444CDE90844FEF7CBFF1849184BD1F8C3
:104B5C000422184822F40072C1F804221B68019444
:104B6C00A0FB0313C822DB0C02FB03F30193019B94
:104B7C002BB1019B013B0193019B002BF9D10E4BF7
:104B8C000E495A6822F480025A601A68002022F4F6
:104B9C0080021A6081F8400301238B6011B030BD94
:104BAC0000100240000400480402014000000140D3
:104BBC00D403002083DE1B430004014000E100E02D
:104BCC00094B10B445F255524CF6CC441C600220F3
:104BDC001A604FF47A614AF6AA2258605DF8044BC9
:104BEC0099601A60704700BF00300040F0B5002497
:104BFC00A1B0214620220EA8CDE90344CDE90544FD
:104C0C00079401F091FA2822214616A801F08CFA9B
:104C1C00CDE90844CDE90A44CDE90C44724E734DFC
:104C2C00336E734F43F400633366336E03F40063E7
:104C3C000293029B03A940F6045328460593FFF701
:104C4C007FF92B6843F080032B60AB6823F4A0330F
:104C5C0023F00703AB60D7F8183C43F00803C7F800
:104C6C00183C0EAA6023012128460E93CDE90F446F
:104C7C00CDE91144CDE913441594FFF7A1F9D7F808
:104C8C00183C23F00403C7F8183CD7F8183C43F43D
:104C9C000063C7F8183C0EAA10212846CDE90F4432
:104CAC00FFF78EF9D7F8183C23F48063C7F8183C4B
:104CBC00D7F81C3C43F008030EAAC7F81C3C4FF471
:104CCC0080712846CDE90F44FFF77AF9D7F81C3CE0
:104CDC0023F00403C7F81C3CD7F81C3C43F40063D6
:104CEC000EAAC7F81C3C4FF480512846CDE90F445E
:104CFC00FFF766F9D7F81C3C23F48063C7F81C3C1B
:104D0C006B6823F070036B60AB6823F08003AB60BF
:104D1C002D2316A98DF8643028464FF400531A93AE
:104D2C00CDE916441894ADF866401F94FFF7BAFA13
:104D3C00F36C43F00103F364F36C03F00103019390
:104D4C00019BF36C02273B43F364F36C294E0897E9
:104D5C003B400125009308A93046009B0D95CDE9F9
:104D6C000974CDE90B44FEF7D7FE08A93046CDE90E
:104D7C000857CDE90A44CDE90C45FEF7CDFE80235A
:104D8C0008A94FF090400893CDE90974CDE90B4484
:104D9C000D95FEF7C1FE4FF4806308A94FF09040CB
:104DAC000893CDE90974CDE90B440D95FEF7B4FEDB
:104DBC004FF4007308A94FF090400893CDE90974A3
:104DCC00CDE90B440D95FEF7A7FE4FF4807308A9AF
:104DDC004FF09040CDE90974CDE90B4408930D9543
:104DEC00FEF79AFE21B0F0BD00100240002C0140ED
:104DFC00002001400004004830B5002387B0CDE905
:104E0C000233CDE90433124A0193936D114C43F0F4
:104E1C0020039365936D03F0200300934F224FF60C
:104E2C00FF7301A920460393009DADF80420FFF702
:104E3C0087F8236823F080032360636823F07003F2
:104E4C006360A36823F08003A36007B030BD00BF8C
:104E5C00001002400014004010B5002386B0CDE9CC
:104E6C000133CDE90333124A0593116E114841F415
:104E7C0000311166126E02F400320092009A80F832
:104E8C0019334FF0007202600B4C27204FF6FF7263
:104E9C00ADF8040001A92046CDE90232CDE9043376
:104EAC00FFF74EF8236843F08003236006B010BD73
:104EBC000010024000E100E00044014030B5002247
:104ECC0089B0CDE90522324B1A6E42F480321A6653
:104EDC001A6E02F480320192019ADA6C42F00102ED
:104EEC00DA64DB6C042103F00103029100930224C9
:104EFC000E2502A94FF09040009B0795CDE9034485
:104F0C00FEF70AFE234AD2F8A8204FF4702322F4AD
:104F1C00702293FAA3F32BB1B3FA83F3072101FAAE
:104F2C0003F31A431B4B1C49C3F8A8209A6D22F4B7
:104F3C00804222F010029A659A6D22F4405242F49B
:104F4C0000529A659A6D22F020029A659A6D22F0B1
:104F5C0040029A659A6D42F080029A659A6D22F42D
:104F6C00407242F480729A659A6D22F4406210206D
:104F7C0042F400629A6581F80F034FF400430B6012
:104F8C00064B00213F229962DA6209B030BD00BFA6
:104F9C00001002400000024000E100E0004001402F
:104FAC004A4B4B4A186E4B4930B540F0010018661D
:104FBC00186E494D89B000F0010002900298986D6E
:104FCC0040F080509865986D00F080500190019BE6
:104FDC00D3684FF6FF0423401943D160D2683B4C91
:104FEC00C2F30222C2F10701131D042928BF0421B8
:104FFC00062B4FF0FF3303FA01F38CBF033A002268
:10500C00DB4393401B01324ADBB282F82330FFF7BB
:10501C00F3FCE36C43F00103E364E36C03F0010382
:10502C000693069BE36C43F00203E364E36C4FF0DE
:10503C00904103F0020307934FF40042079B8A62EE
:10504C00A36C43F00103A364A36C03F00103059369
:10505C002021059B85F80E134FF480432B60102301
:10506C0085F80F332A60FFF7C1FDA36D43F00103F0
:10507C00A365A36D03F001034FF080420493049BDE
:10508C0027214FF6FF739162D362FFF719FDFFF7EB
:10509C00E3FEA36D43F01003A365A36D03F01003AF
:1050AC0003933022039B85F836234FF480036B6007
:1050BC000A4B4F2132229962DA62FFF79DFEFFF70D
:1050CC00FDFE09B0BDE8304000F0FEBD001002400E
:1050DC0000ED00E00003FA0500E100E000100040E4
:1050EC00014B5863704700BF002C0140014B986383
:1050FC00704700BF002C0140014BD863704700BFC4
:10510C00002C0140024A536943F00103536170477C
:10511C00002C0140024B00229A625A62704700BF79
:10512C00004001404D4B4E491A6A42F0010200B555
:10513C001A621A6A42F010021A621A6A42F48072F7
:10514C001A621A6A42F004021A621A6A42F04002A7
:10515C001A621A6A42F480621A621A6A642042F471
:10516C0080521A62186418683E4A40F001001860B8
:10517C00586C40F400405864586940F00100586184
:10518C000B6A394843F001030B620B6843F00103CF
:10519C000B60136843F001031360536943F0010380
:1051AC005361D36843F00103D360D36823F0010348
:1051BC00D36002682D4B42F00102026042694FF04D
:1051CC00804142F0010242610A6842F001020A6029
:1051DC004A6942F001024A611A6842F001021A60FF
:1051EC005A6942F001025A61DA6842F0010283B056
:1051FC00DA60FFF707F9FFF723FAFFF7C5F91C4A46
:10520C001C4900230193D2F8043243F00103C2F885
:10521C0004320B68184A9B09A2FB03239B09174A0B
:10522C0003EB83031B01A2FB0323DB080193019B0C
:10523C002BB1019B013B0193019B002BF9D1104B2E
:10524C00202283F828234FF480725A600D4A136889
:10525C0043F40043136003B05DF804FB002C0140E1
:10526C000040014000440140001400400010004088
:10527C0000000140D4030020632D3E05CDCCCCCCE6
:10528C0000E100E0000401404FF090424FF48063D5
:10529C00126893FAA3F33BB1B3FA83F35B000321D7
:1052AC0001FA03F322EA03024FF4806393FAA3F3A7
:1052BC0033B1B3FA83F35B00012101FA03F31A4310
:1052CC004FF090434FF480611A6099621A684FF462
:1052DC00007393FAA3F33BB1B3FA83F35B0003219E
:1052EC0001FA03F322EA03024FF4007393FAA3F3D7
:1052FC0033B1B3FA83F35B00012101FA03F31A43D0
:10530C004FF090434FF400711A6099621A684FF491
:10531C00807393FAA3F33BB1B3FA83F35B000321DD
:10532C0001FA03F322EA03024FF4807393FAA3F316
:10533C0033B1B3FA83F35B00012101FA03F31A438F
:10534C004FF090432A491A604FF4807098620A68B3
:10535C00022393FAA3F33BB1B3FA83F35B0003216B
:10536C0001FA03F322EA0302022191FAA1F32BB111
:10537C00B3FA83F35B0001FA03F31A431C490A6086
:10538C000A68012393FAA3F33BB1B3FA83F35B00EE
:10539C00032101FA03F322EA0302012393FAA3F394
:1053AC0033B1B3FA83F35B00022101FA03F31A431E
:1053BC000F494FF090430A601A68802393FAA3F3C5
:1053CC003BB1B3FA83F35B00032101FA03F322EA46
:1053DC000302802393FAA3F333B1B3FA83F35B0094
:1053EC00022101FA03F31A434FF090431A607047FD
:1053FC00000400482D4B2E4A1B7D002B3AD112681D
:10540C00012393FAA3F33BB1B3FA83F35B000321BB
:10541C0001FA03F322EA0302012191FAA1F32BB161
:10542C00B3FA83F38B4001FA03F31A43204B0121A7
:10543C001A6099624FF090424FF40073126893FA1D
:10544C00A3F33BB1B3FA83F35B00032101FA03F33B
:10545C0022EA03024FF4007393FAA3F333B1B3FAC5
:10546C0083F35B00022101FA03F31A434FF09043DC
:10547C001A6070471268012393FAA3F33BB1B3FA95
:10548C0083F35B00032101FA03F322EA03020123F5
:10549C0093FAA3F333B1B3FA83F35B00022101FA5D
:1054AC0003F31A43024B1A60C4E700BFD004002078
:1054BC00000400481F4A0123126893FAA3F33BB17E
:1054CC00B3FA83F35B00032101FA03F322EA03022C
:1054DC00012191FAA1F32BB1B3FA83F38B4001FABA
:1054EC0003F31A43134B01204FF090411A6098625A
:1054FC000A684FF4007393FAA3F33BB1B3FA83F346
:10550C008340032101FA03F322EA03024FF40073F0
:10551C0093FAA3F333B1B3FA83F35B00012101FADD
:10552C0003F31A434FF090434FF400711A609962E1
:10553C00704700BF000400481F4A0123126893FA09
:10554C00A3F33BB1B3FA83F35B00032101FA03F33A
:10555C0022EA0302012191FAA1F32BB1B3FA83F3EE
:10556C008B4001FA03F31A43134B01204FF0904187
:10557C001A6098610A684FF4007393FAA3F33BB175
:10558C00B3FA83F38340032101FA03F322EA030203
:10559C004FF4007393FAA3F333B1B3FA83F35B00C4
:1055AC00012101FA03F31A434FF090434FF40071B9
:1055BC001A609962704700BF000400482F4B1B7D96
:1055CC004FF09042002B3CD11268802393FAA3F346
:1055DC003BB1B3FA83F35B00032101FA03F322EA34
:1055EC000302802393FAA3F333B1B3FA83F35B0082
:1055FC00012101FA03F31A434FF0904380211A6002
:10560C0099624FF090424FF48073126893FAA3F3AF
:10561C003BB1B3FA83F35B00032101FA03F322EAF3
:10562C0003024FF4807393FAA3F333B1B3FA83F309
:10563C005B00022101FA03F31A434FF090431A6006
:10564C0070471268802393FAA3F33BB1B3FA83F348
:10565C005B00032101FA03F322EA0302802393FA8D
:10566C00A3F333B1B3FA83F35B00022101FA03F322
:10567C001A434FF090431A60C3E700BFD0040020D8
:10568C004FF090428023126893FAA3F33BB1B3FA24
:10569C0083F35B00032101FA03F322EA0302802364
:1056AC0093FAA3F333B1B3FA83F35B00012101FA4C
:1056BC0003F31A434FF0904380211A6099621A68E1
:1056CC004FF4807393FAA3F33BB1B3FA83F35B000B
:1056DC00032101FA03F322EA03024FF4807393FAD5
:1056EC00A3F333B1B3FA83F35B00012101FA03F3A3
:1056FC001A434FF090434FF480711A6099627047CF
:10570C004FF090428023126893FAA3F33BB1B3FAA3
:10571C0083F35B00032101FA03F322EA03028023E3
:10572C0093FAA3F333B1B3FA83F35B00012101FACB
:10573C0003F31A434FF0904380211A6099611A6861
:10574C004FF4807393FAA3F33BB1B3FA83F35B008A
:10575C00032101FA03F322EA03024FF4807393FA54
:10576C00A3F333B1B3FA83F35B00012101FA03F322
:10577C001A434FF090434FF480711A60996270474E
:10578C002D4B2E4A1B7D002B3BD11268022393FA22
:10579C00A3F33BB1B3FA83F35B00032101FA03F3E8
:1057AC0022EA0302022393FAA3F333B1B3FA83F38D
:1057BC005B00012101FA03F31A43204B02211A600A
:1057CC0099624FF090424FF48063126893FAA3F3FE
:1057DC003BB1B3FA83F35B00032101FA03F322EA32
:1057EC0003024FF4806393FAA3F333B1B3FA83F358
:1057FC005B00022101FA03F31A434FF090431A6045
:10580C0070471268022393FAA3F33BB1B3FA83F304
:10581C005B00032101FA03F322EA0302022191FA4D
:10582C00A1F32BB1B3FA83F35B0001FA03F31A4330
:10583C00024B1A60C5E700BFD004002000040048EA
:10584C001F4A0223126893FAA3F33BB1B3FA83F312
:10585C005B00032101FA03F322EA0302022393FA09
:10586C00A3F333B1B3FA83F35B00012101FA03F321
:10587C001A43134B02204FF090411A6098620A6849
:10588C004FF4806393FAA3F33BB1B3FA83F35B0059
:10589C00032101FA03F322EA03024FF4806393FA23
:1058AC00A3F333B1B3FA83F35B00012101FA03F3E1
:1058BC001A434FF090434FF480611A60996270471D
:1058CC00000400481F4A0223126893FAA3F33BB169
:1058DC00B3FA83F35B00032101FA03F322EA030218
:1058EC00022393FAA3F333B1B3FA83F35B000121E0
:1058FC0001FA03F31A43134B02204FF090411A6044
:10590C0098610A684FF4806393FAA3F33BB1B3FA3E
:10591C0083F35B00032101FA03F322EA03024FF441
:10592C00806393FAA3F333B1B3FA83F35B000121E1
:10593C0001FA03F31A434FF090434FF480611A605D
:10594C0099627047000400485D4A0223126893FA7A
:10595C00A3F33BB1B3FA83F35B00032101FA03F326
:10596C0022EA0302022393FAA3F333B1B3FA83F3CB
:10597C005B00012101FA03F31A43514B02204FF053
:10598C0090411A6098620A684FF4806393FAA3F30B
:10599C003BB1B3FA83F35B00032101FA03F322EA70
:1059AC0003024FF4806393FAA3F333B1B3FA83F396
:1059BC005B00012101FA03F31A434FF09043404975
:1059CC001A604FF4806098620A68012393FAA3F37B
:1059DC003BB1B3FA83F35B00032101FA03F322EA30
:1059EC000302012191FAA1F32BB1B3FA83F38B409B
:1059FC0001FA03F31A43324B01204FF090411A6025
:105A0C0098620A684FF4007393FAA3F33BB1B3FAAC
:105A1C0083F38340032101FA03F322EA03024FF4D8
:105A2C00007393FAA3F333B1B3FA83F35B00012150
:105A3C0001FA03F31A434FF090434FF400711A60CC
:105A4C0099621A68802393FAA3F33BB1B3FA83F3F8
:105A5C005B00032101FA03F322EA0302802393FA89
:105A6C00A3F333B1B3FA83F35B00012101FA03F31F
:105A7C001A434FF0904380211A6099621A684FF4D0
:105A8C00807393FAA3F33BB1B3FA83F35B00032166
:105A9C0001FA03F322EA03024FF4807393FAA3F39F
:105AAC0033B1B3FA83F35B00012101FA03F31A4318
:105ABC004FF090434FF480711A609962704700BFA9
:105ACC0000040048013808B5052834D8DFE800F098
:105ADC000B131B232B03FFF7EDFCFFF711FEBDE8A7
:105AEC000840FFF74DBEFFF7CBFDFFF725FDBDE8E6
:105AFC000840FFF745BEFFF7A3FEFFF71DFDBDE80D
:105B0C000840FFF75BBDFFF7D5FCFFF7DBFEBDE8F8
:105B1C000840FFF753BDFFF7B3FDFFF7D3FEBDE819
:105B2C000840FFF767BCFFF78BFEFFF7E9FDBDE808
:105B3C000840FFF75FBC08BD5D4A0223126893FA68
:105B4C00A3F33BB1B3FA83F35B00032101FA03F334
:105B5C0022EA0302022393FAA3F333B1B3FA83F3D9
:105B6C005B00012101FA03F31A43514B02204FF061
:105B7C0090411A6098610A684FF4806393FAA3F31A
:105B8C003BB1B3FA83F35B00032101FA03F322EA7E
:105B9C0003024FF4806393FAA3F333B1B3FA83F3A4
:105BAC005B00012101FA03F31A434FF09043404983
:105BBC001A604FF4806098620A68012393FAA3F389
:105BCC003BB1B3FA83F35B00032101FA03F322EA3E
:105BDC000302012191FAA1F32BB1B3FA83F38B40A9
:105BEC0001FA03F31A43324B01204FF090411A6033
:105BFC0098610A684FF4007393FAA3F33BB1B3FABC
:105C0C0083F38340032101FA03F322EA03024FF4E6
:105C1C00007393FAA3F333B1B3FA83F35B0001215E
:105C2C0001FA03F31A434FF090434FF400711A60DA
:105C3C0099621A68802393FAA3F33BB1B3FA83F306
:105C4C005B00032101FA03F322EA0302802393FA97
:105C5C00A3F333B1B3FA83F35B00012101FA03F32D
:105C6C001A434FF0904380211A6099611A684FF4DF
:105C7C00807393FAA3F33BB1B3FA83F35B00032174
:105C8C0001FA03F322EA03024FF4807393FAA3F3AD
:105C9C0033B1B3FA83F35B00012101FA03F31A4326
:105CAC004FF090434FF480711A609962704700BFB7
:105CBC000004004808B5FFF763FDFFF79BFBBDE848
:105CCC000840FFF77BBC00BF30B5002391B0CDE995
:105CDC000933CDE90B33CDE90D33CDE905334D4A0D
:105CEC000F93D2F8883023F00303C2F88830136E78
:105CFC0043F480431366136E03F480430293029BB8
:105D0C00D36C02242343D364D36C049423400193B7
:105D1C004021019803910122072303A93E48CDE9B4
:105D2C000723FDF7F9FE3D4AD2F8A8204FF4704343
:105D3C0022F4704293FAA3F323B1B3FA83F304FA77
:105D4C0003F31A43354B364CC3F8A8205A6C22F493
:105D5C00804222F0100242F010025A645A6C22F473
:105D6C0040525A645A6C22F020025A645A6C22F047
:105D7C0040025A645A6C42F080025A645A6C22F403
:105D8C0040725A645A6C22F440625A6400250C2307
:105D9C004FF4E13209A920460D93CDE90925CDE94F
:105DAC000B550F95FEF7B6FA636823F490436360C6
:105DBC00A36823F02203A360A36843F00803A36045
:105DCC00236843F001032360E3699A02FCD5E3697D
:105DDC005B02F9D5114B13485A6C44F210010A407E
:105DEC00102A11490BBF1865D864D96419650B4B7F
:105DFC000E499A6C0978120C12040A439A645A6C74
:105E0C0042F002025A645A6C42F008025A6411B011
:105E1C0030BD00BF001002400004004800000240EA
:105E2C00003801405808002028380140D0030020D9
:105E3C00154A52E8003F23F00C0343F0080342E8F4
:105E4C0000310029F5D111481149836C09781B0CDC
:105E5C001B040B430F49836451E8003F43F080035C
:105E6C0041E800300028F7D108494B6C43F001039E
:105E7C004B6452E8003F23F00C0343F0040342E868
:105E8C0000310029F5D17047003801400000024074
:105E9C00D00300200838014010B5174CBDF808C0DD
:105EAC002271120AE2701A0AA1706271090A4FEA91
:105EBC001C22617084F808C02070A371E271A446A2
:105ECC0004F1080E0021414008224B0011F0800F14
:105EDC0083F0070314BFD9B2490002F1FF3308BFA6
:105EEC00C9B213F0FF02F0D1F44502D01CF8010F37
:105EFC00E9E7617210BD00BF58080020FEE700BF43
:105F0C00FEE700BFFEE700BFFEE700BFFEE700BFF5
:105F1C00704700BF704700BF704700BF704700BF9D
:105F2C0008B5074B1A68910703D501225A60FEF792
:105F3C0053FA034B1A68120644BF80225A6008BDFC
:105F4C0000000240074B1A68910402D41A6812042C
:105F5C0006D54FF480525A605A6C22F001025A64F2
:105F6C00704700BF0000024008B5234B1B7813B1EB
:105F7C00224B1B784BBB224B1A6850030CD5214A81
:105F8C0012784AB120490A6A22F00A024FF48020A2
:105F9C0042F002020A625860194B1A6891030DD53F
:105FAC005A68002142F480325A609965FDF7D6FA9E
:105FBC00164A136943F40043136108BD1A681203AF
:105FCC00FBD54FF480325A6008BD0D4B10495A680E
:105FDC00002042F480325A6098650B782BB1FEF7A2
:105FEC007DFB0C4B02221A70E2E7FEF7BDFB094B5E
:105FFC0001221A70DCE700BFAC060020E906002085
:10600C0000000240930500200040014000040140C4
:10601C0050070020C0060020044B1A69D20700D498
:10602C0070476FF001021A61FCF718BB00100040BA
:10603C0010B5054C2369DB0700D410BDFBF786FDBA
:10604C006FF00103236110BD00440140044B5A69F9
:10605C00520200D470474FF480025A61FBF7B6BD70
:10606C0000040140044A054913884FF400400133F1
:10607C0013804861FCF7DAB9620800200004014083
:10608C000E4AD2F8883043F47003C2F888300C4BB7
:10609C001A68002142F001021A6099601A6822F015
:1060AC00A85222F410221A604FF48052DA601A6857
:1060BC0022F480221A609961704700BF00ED00E065
:1060CC000010024070B50D4D0D4C641BA410002641
:1060DC00A64209D10B4D0C4C00F02EF8641BA410F9
:1060EC000026A64205D170BD55F8043B98470136F1
:1060FC00EEE755F8043B98470136F2E7CC6100080F
:10610C00CC610008CC610008D46100080A449142BB
:10611C0000F1FF3300D1704710B511F8014B03F8B3
:10612C00014F9142F9D110BD02440346934200D174
:10613C00704703F8011BF9E7F8B500BFF8BC08BCC1
:10614C009E467047F8B500BFF8BC08BC9E46704729
:10615C00191B12131D1516171A090A0B1E0D0E0FFB
:10616C00A0860100400D0300801A060000350C00CB
:10617C0040420F0080841E0000093D0000127A008E
:10618C000024F40000366E010048E801006CDC02CB
:10619C0000000000010203040000000000000000E9
:1061AC00010203040607080956696D64726F6E6577
:0861BC004C34333100000000F7
:0861C400C8AFFF7F01000000DD
:0861CC008D110008C11100084B
:0461D4009D11000811
:1061D80000F80008040D040D78002D002D00D007EC
:1061E8004C046C07DC0564004A012D009001C800CE
:1061F800010014004600DC05020103010101000052
:10620800D43000000105010AE8030000102700004F
:10621800000000000A000000000000006400000008
:106228000000000000000000000000000000000066
:106238001027000050C30000B400D007D0070000AA
:10624800B400B700BA00BD00C100C400C700CA004E
:10625800CD00D000D300D600D900DC00E000E30078
:10626800E600E900EC00EF00F200F500F700FA00A4
:10627800FD0000010301060109010B010E011101D6
:106288001301160119011B011E012001230125011B
:1062980028012A012C012F01310133013501380170
:1062A8003A013C013E0140014201440146014701D7
:1062B80049014B014D014E01500151015301540157
:1062C8005601570158015A015B015C015D015E01ED
:1062D8005F0160016101620163016301640165019D
:1062E8006501660166016701670167016801680168
:1062F800680168016801680168016801680167014F
:106308006701670166016601650165016401630152
:1063180063016201610160015F015E015D015C0171
:106328005B015A01580157015601540153015101AB
:1063380050014E014D014B014901470146014401FD
:10634800420140013E013C013A0138013501330167
:1063580031012F012C012A012801250123012001E7
:106368001E011B0119011601130111010E010B0178
:106378000901060103010001FD00FA00F700F5001C
:10638800F200EF00EC00E900E600E300E000DC00CA
:10639800D900D600D300D000CD00CA00C700C40081
:1063A800C100BD00BA00B700B400B100AE00AB0038
:1063B800A700A400A1009E009B00980095009200F1
:1063C8008F008C008800850082007F007C007900A7
:1063D8007600730071006E006B0068006500620053
:1063E8005F005D005A005700550052004F004D00F5
:1063F8004A0048004500430040003E003C00390088
:1064080037003500330030002E002C002A00280009
:1064180026002400220021001F001D001B001A0076
:1064280018001700150014001200110010000E00CB
:106438000D000C000B000A00090008000700060008
:10644800050005000400030003000200020001002B
:106458000100010000000000000000000000000032
:10646800000000000000010001000100020002001D
:1064780003000300040005000500060007000800EB
:1064880009000A000B000C000D000E00100011009E
:10649800120014001500170018001A001B001D0038
:1064A8001F00210022002400260028002A002C00BA
:1064B8002E00300033003500370039003C003E0024
:1064C80040004300450048004A004D004F0052007C
:1064D800550057005A005D005F00620065006800C3
:1064E8006B006E0071007300760079007C007F00FD
:1064F8008200850088008C008F009200950098002B
:106508009B009E00A100A400A700AB00AE00B10054
:106518002D001E0303000000000000009001000091
:1065280000000000E8030000000000000000000078
:106538000000000000000000204E0000A0860100BE
:1065480064190000000000000100000000000000C5
:106558003200000000000000000000000000000001
:10656800000000001027000050C3000001020100D5
:106578005E00D00764000500E803061432007800C6
:106588004B005A005A001E0002010000FA000000E9
:10659800204E200050C3140023016745AB89EFCD7E
:0865A8000A00000000093D009B
:10F7E00056494D44524F4E45535F4C34333100001F
:10F7F0000000000000000000000000000000000009
:0400000508003A991C
:00000001FF
